{
  "_format": "hh-sol-artifact-1",
  "contractName": "BNBHiveR",
  "sourceName": "contracts/razbor.sol",
  "abi": [
    {
      "inputs": [
        {
          "internalType": "address",
          "name": "_devAddress",
          "type": "address"
        }
      ],
      "stateMutability": "nonpayable",
      "type": "constructor"
    },
    {
      "anonymous": false,
      "inputs": [
        {
          "indexed": true,
          "internalType": "address",
          "name": "previousOwner",
          "type": "address"
        },
        {
          "indexed": true,
          "internalType": "address",
          "name": "newOwner",
          "type": "address"
        }
      ],
      "name": "OwnershipTransferred",
      "type": "event"
    },
    {
      "inputs": [],
      "name": "DEV_FEE_PERCENT",
      "outputs": [
        {
          "internalType": "uint256",
          "name": "",
          "type": "uint256"
        }
      ],
      "stateMutability": "view",
      "type": "function"
    },
    {
      "inputs": [],
      "name": "HONEY_TO_CLAIM_ONE_BEE",
      "outputs": [
        {
          "internalType": "uint256",
          "name": "",
          "type": "uint256"
        }
      ],
      "stateMutability": "view",
      "type": "function"
    },
    {
      "inputs": [],
      "name": "INCOME_PERCENT",
      "outputs": [
        {
          "internalType": "uint256",
          "name": "",
          "type": "uint256"
        }
      ],
      "stateMutability": "view",
      "type": "function"
    },
    {
      "inputs": [],
      "name": "MAX_DEPOSIT_STEP",
      "outputs": [
        {
          "internalType": "uint256",
          "name": "",
          "type": "uint256"
        }
      ],
      "stateMutability": "view",
      "type": "function"
    },
    {
      "inputs": [],
      "name": "MAX_REF_LEVEL",
      "outputs": [
        {
          "internalType": "uint256",
          "name": "",
          "type": "uint256"
        }
      ],
      "stateMutability": "view",
      "type": "function"
    },
    {
      "inputs": [],
      "name": "MIN_DEPOSIT",
      "outputs": [
        {
          "internalType": "uint256",
          "name": "",
          "type": "uint256"
        }
      ],
      "stateMutability": "view",
      "type": "function"
    },
    {
      "inputs": [],
      "name": "ONE_DAY",
      "outputs": [
        {
          "internalType": "uint256",
          "name": "",
          "type": "uint256"
        }
      ],
      "stateMutability": "view",
      "type": "function"
    },
    {
      "inputs": [],
      "name": "ONE_WEEK",
      "outputs": [
        {
          "internalType": "uint256",
          "name": "",
          "type": "uint256"
        }
      ],
      "stateMutability": "view",
      "type": "function"
    },
    {
      "inputs": [],
      "name": "RATIO_MULTIPLIER",
      "outputs": [
        {
          "internalType": "uint256",
          "name": "",
          "type": "uint256"
        }
      ],
      "stateMutability": "view",
      "type": "function"
    },
    {
      "inputs": [
        {
          "internalType": "uint256",
          "name": "",
          "type": "uint256"
        }
      ],
      "name": "REF_LEVEL_PERCENT",
      "outputs": [
        {
          "internalType": "uint256",
          "name": "",
          "type": "uint256"
        }
      ],
      "stateMutability": "view",
      "type": "function"
    },
    {
      "inputs": [],
      "name": "REWARD_EPOCH_SECONDS",
      "outputs": [
        {
          "internalType": "uint256",
          "name": "",
          "type": "uint256"
        }
      ],
      "stateMutability": "view",
      "type": "function"
    },
    {
      "inputs": [],
      "name": "TOTAL_REF_PERCENT",
      "outputs": [
        {
          "internalType": "uint256",
          "name": "",
          "type": "uint256"
        }
      ],
      "stateMutability": "view",
      "type": "function"
    },
    {
      "inputs": [],
      "name": "VAULT_FEE_PERCENT",
      "outputs": [
        {
          "internalType": "uint256",
          "name": "",
          "type": "uint256"
        }
      ],
      "stateMutability": "view",
      "type": "function"
    },
    {
      "inputs": [
        {
          "internalType": "address",
          "name": "_address",
          "type": "address"
        }
      ],
      "name": "bnbRewards",
      "outputs": [
        {
          "internalType": "uint256",
          "name": "",
          "type": "uint256"
        }
      ],
      "stateMutability": "view",
      "type": "function"
    },
    {
      "inputs": [
        {
          "internalType": "address",
          "name": "_address",
          "type": "address"
        }
      ],
      "name": "calculateDailyIncome",
      "outputs": [
        {
          "internalType": "uint256",
          "name": "",
          "type": "uint256"
        }
      ],
      "stateMutability": "view",
      "type": "function"
    },
    {
      "inputs": [
        {
          "internalType": "uint256",
          "name": "eth",
          "type": "uint256"
        }
      ],
      "name": "calculateHoneyBuy",
      "outputs": [
        {
          "internalType": "uint256",
          "name": "",
          "type": "uint256"
        }
      ],
      "stateMutability": "view",
      "type": "function"
    },
    {
      "inputs": [
        {
          "internalType": "uint256",
          "name": "honey",
          "type": "uint256"
        }
      ],
      "name": "calculateHoneySell",
      "outputs": [
        {
          "internalType": "uint256",
          "name": "",
          "type": "uint256"
        }
      ],
      "stateMutability": "view",
      "type": "function"
    },
    {
      "inputs": [
        {
          "internalType": "address payable",
          "name": "inviter",
          "type": "address"
        }
      ],
      "name": "deposit",
      "outputs": [],
      "stateMutability": "payable",
      "type": "function"
    },
    {
      "inputs": [],
      "name": "devAddress",
      "outputs": [
        {
          "internalType": "address payable",
          "name": "",
          "type": "address"
        }
      ],
      "stateMutability": "view",
      "type": "function"
    },
    {
      "inputs": [
        {
          "internalType": "uint256",
          "name": "_amount",
          "type": "uint256"
        }
      ],
      "name": "extraFund",
      "outputs": [],
      "stateMutability": "nonpayable",
      "type": "function"
    },
    {
      "inputs": [],
      "name": "getAll",
      "outputs": [],
      "stateMutability": "nonpayable",
      "type": "function"
    },
    {
      "inputs": [],
      "name": "getBalance",
      "outputs": [
        {
          "internalType": "uint256",
          "name": "",
          "type": "uint256"
        }
      ],
      "stateMutability": "view",
      "type": "function"
    },
    {
      "inputs": [
        {
          "internalType": "address",
          "name": "_address",
          "type": "address"
        }
      ],
      "name": "getBees",
      "outputs": [
        {
          "internalType": "uint256",
          "name": "",
          "type": "uint256"
        }
      ],
      "stateMutability": "view",
      "type": "function"
    },
    {
      "inputs": [
        {
          "internalType": "address",
          "name": "_address",
          "type": "address"
        }
      ],
      "name": "getHoney",
      "outputs": [
        {
          "internalType": "uint256",
          "name": "",
          "type": "uint256"
        }
      ],
      "stateMutability": "view",
      "type": "function"
    },
    {
      "inputs": [
        {
          "internalType": "address",
          "name": "_address",
          "type": "address"
        }
      ],
      "name": "getHoneySinceLastClaim",
      "outputs": [
        {
          "internalType": "uint256",
          "name": "",
          "type": "uint256"
        }
      ],
      "stateMutability": "view",
      "type": "function"
    },
    {
      "inputs": [
        {
          "internalType": "address",
          "name": "_address",
          "type": "address"
        }
      ],
      "name": "getMaxDeposit",
      "outputs": [
        {
          "internalType": "uint256",
          "name": "",
          "type": "uint256"
        }
      ],
      "stateMutability": "view",
      "type": "function"
    },
    {
      "inputs": [
        {
          "internalType": "uint256",
          "name": "level",
          "type": "uint256"
        }
      ],
      "name": "getRefLevelPercent",
      "outputs": [
        {
          "internalType": "uint256",
          "name": "",
          "type": "uint256"
        }
      ],
      "stateMutability": "view",
      "type": "function"
    },
    {
      "inputs": [
        {
          "internalType": "address",
          "name": "_address",
          "type": "address"
        },
        {
          "internalType": "uint256",
          "name": "level",
          "type": "uint256"
        }
      ],
      "name": "getReferralsCount",
      "outputs": [
        {
          "internalType": "uint256",
          "name": "",
          "type": "uint256"
        }
      ],
      "stateMutability": "view",
      "type": "function"
    },
    {
      "inputs": [
        {
          "internalType": "address",
          "name": "_address",
          "type": "address"
        },
        {
          "internalType": "uint256",
          "name": "level",
          "type": "uint256"
        }
      ],
      "name": "getReferralsIncome",
      "outputs": [
        {
          "internalType": "uint256",
          "name": "",
          "type": "uint256"
        }
      ],
      "stateMutability": "view",
      "type": "function"
    },
    {
      "inputs": [],
      "name": "initialized",
      "outputs": [
        {
          "internalType": "bool",
          "name": "",
          "type": "bool"
        }
      ],
      "stateMutability": "view",
      "type": "function"
    },
    {
      "inputs": [],
      "name": "initializedAt",
      "outputs": [
        {
          "internalType": "uint256",
          "name": "",
          "type": "uint256"
        }
      ],
      "stateMutability": "view",
      "type": "function"
    },
    {
      "inputs": [],
      "name": "marketHoney",
      "outputs": [
        {
          "internalType": "uint256",
          "name": "",
          "type": "uint256"
        }
      ],
      "stateMutability": "view",
      "type": "function"
    },
    {
      "inputs": [],
      "name": "owner",
      "outputs": [
        {
          "internalType": "address",
          "name": "",
          "type": "address"
        }
      ],
      "stateMutability": "view",
      "type": "function"
    },
    {
      "inputs": [
        {
          "internalType": "address",
          "name": "",
          "type": "address"
        }
      ],
      "name": "referrers",
      "outputs": [
        {
          "internalType": "address payable",
          "name": "inviter",
          "type": "address"
        },
        {
          "internalType": "address payable",
          "name": "ref",
          "type": "address"
        }
      ],
      "stateMutability": "view",
      "type": "function"
    },
    {
      "inputs": [],
      "name": "reinvest",
      "outputs": [],
      "stateMutability": "nonpayable",
      "type": "function"
    },
    {
      "inputs": [],
      "name": "renounceOwnership",
      "outputs": [],
      "stateMutability": "nonpayable",
      "type": "function"
    },
    {
      "inputs": [],
      "name": "seedMarket",
      "outputs": [],
      "stateMutability": "payable",
      "type": "function"
    },
    {
      "inputs": [
        {
          "internalType": "address",
          "name": "_newDevAddress",
          "type": "address"
        }
      ],
      "name": "setDevAddress",
      "outputs": [],
      "stateMutability": "nonpayable",
      "type": "function"
    },
    {
      "inputs": [
        {
          "internalType": "address",
          "name": "_vaultAddress",
          "type": "address"
        }
      ],
      "name": "setVaultAddress",
      "outputs": [],
      "stateMutability": "nonpayable",
      "type": "function"
    },
    {
      "inputs": [],
      "name": "top",
      "outputs": [
        {
          "internalType": "address payable",
          "name": "",
          "type": "address"
        }
      ],
      "stateMutability": "view",
      "type": "function"
    },
    {
      "inputs": [
        {
          "internalType": "address",
          "name": "newOwner",
          "type": "address"
        }
      ],
      "name": "transferOwnership",
      "outputs": [],
      "stateMutability": "nonpayable",
      "type": "function"
    },
    {
      "inputs": [
        {
          "internalType": "address",
          "name": "",
          "type": "address"
        }
      ],
      "name": "users",
      "outputs": [
        {
          "internalType": "address",
          "name": "_address",
          "type": "address"
        },
        {
          "internalType": "uint256",
          "name": "totalDeposit",
          "type": "uint256"
        },
        {
          "internalType": "uint256",
          "name": "totalRefIncome",
          "type": "uint256"
        },
        {
          "internalType": "uint256",
          "name": "totalRefs",
          "type": "uint256"
        },
        {
          "internalType": "uint256",
          "name": "hiredBees",
          "type": "uint256"
        },
        {
          "internalType": "uint256",
          "name": "claimedHoney",
          "type": "uint256"
        },
        {
          "internalType": "uint256",
          "name": "lastClaim",
          "type": "uint256"
        }
      ],
      "stateMutability": "view",
      "type": "function"
    },
    {
      "inputs": [],
      "name": "vaultAddress",
      "outputs": [
        {
          "internalType": "address payable",
          "name": "",
          "type": "address"
        }
      ],
      "stateMutability": "view",
      "type": "function"
    },
    {
      "inputs": [],
      "name": "withdraw",
      "outputs": [],
      "stateMutability": "nonpayable",
      "type": "function"
    }
  ],
  "bytecode": "0x608060405267016345785d8a000060015560036002556103e86003556201518060045562093a80600555600454600655620000616200004e600654600254620002de60201b6200234b1760201c565b6064620002f660201b620023611760201c565b600755600360085560026009556040518060a00160405280600a60ff168152602001600760ff168152602001600560ff168152602001600360ff168152602001600160ff16815250600a906005620000bb929190620003da565b50600a80549050600b55601a600c55678ac7230489e80000600d556000600e60006101000a81548160ff021916908315150217905550348015620000fe57600080fd5b5060405162003b0738038062003b078339818101604052810190620001249190620004ba565b62000144620001386200030e60201b60201c565b6200031660201b60201c565b80601160006101000a81548173ffffffffffffffffffffffffffffffffffffffff021916908373ffffffffffffffffffffffffffffffffffffffff16021790555060405180604001604052803373ffffffffffffffffffffffffffffffffffffffff1681526020013373ffffffffffffffffffffffffffffffffffffffff16815250601360003373ffffffffffffffffffffffffffffffffffffffff1673ffffffffffffffffffffffffffffffffffffffff16815260200190815260200160002060008201518160000160006101000a81548173ffffffffffffffffffffffffffffffffffffffff021916908373ffffffffffffffffffffffffffffffffffffffff16021790555060208201518160010160006101000a81548173ffffffffffffffffffffffffffffffffffffffff021916908373ffffffffffffffffffffffffffffffffffffffff16021790555090505033601060006101000a81548173ffffffffffffffffffffffffffffffffffffffff021916908373ffffffffffffffffffffffffffffffffffffffff16021790555050620005ed565b60008183620002ee919062000554565b905092915050565b600081836200030691906200058c565b905092915050565b600033905090565b60008060009054906101000a900473ffffffffffffffffffffffffffffffffffffffff169050816000806101000a81548173ffffffffffffffffffffffffffffffffffffffff021916908373ffffffffffffffffffffffffffffffffffffffff1602179055508173ffffffffffffffffffffffffffffffffffffffff168173ffffffffffffffffffffffffffffffffffffffff167f8be0079c531659141344cd1fd0a4f28419497f9722a3daafe3b4186f6b6457e060405160405180910390a35050565b8280548282559060005260206000209081019282156200041e579160200282015b828111156200041d578251829060ff16905591602001919060010190620003fb565b5b5090506200042d919062000431565b5090565b5b808211156200044c57600081600090555060010162000432565b5090565b600080fd5b600073ffffffffffffffffffffffffffffffffffffffff82169050919050565b6000620004828262000455565b9050919050565b620004948162000475565b8114620004a057600080fd5b50565b600081519050620004b48162000489565b92915050565b600060208284031215620004d357620004d262000450565b5b6000620004e384828501620004a3565b91505092915050565b6000819050919050565b7f4e487b7100000000000000000000000000000000000000000000000000000000600052601260045260246000fd5b7f4e487b7100000000000000000000000000000000000000000000000000000000600052601160045260246000fd5b60006200056182620004ec565b91506200056e83620004ec565b925082620005815762000580620004f6565b5b828204905092915050565b60006200059982620004ec565b9150620005a683620004ec565b9250817fffffffffffffffffffffffffffffffffffffffffffffffffffffffffffffffff0483118215151615620005e257620005e162000525565b5b828202905092915050565b61350a80620005fd6000396000f3fe6080604052600436106102675760003560e01c8063863e76db11610144578063d5f651a4116100b6578063f2fde38b1161007a578063f2fde38b1461095c578063f340fa0114610985578063f561055e146109a1578063f966a5cd146109cc578063fdb5a03e14610a09578063fe6dcdba14610a2057610267565b8063d5f651a414610861578063d65cfbbe1461088c578063de5b94a6146108c9578063e1e158a5146108f4578063e6ffcd7e1461091f57610267565b8063a87430ba11610108578063a87430ba14610713578063b884e0c414610756578063bd90b31314610793578063c668c59f146107d0578063cb36faea1461080d578063d0d41fe11461083857610267565b8063863e76db1461063c5780638da5cb5b146106675780638e6f6b771461069257806391cf6d3e146106bd5780639b12a6b4146106e857610267565b80633ccfd60b116101dd5780634a3b68cc116101a15780634a3b68cc1461053f57806353ed51431461057d5780635e6a645e1461059457806370c48242146105bf578063715018a6146105fc57806385535cc51461061357610267565b80633ccfd60b146104585780633e6cb4691461046f578063430bf08a146104ac578063441b99c5146104d75780634a03ad2b1461051457610267565b8063266636f91161022f578063266636f9146103675780632a0a0371146103a45780632f79ae08146103cf5780633a55b616146103f85780633ad10ef6146104235780633c5f07cb1461044e57610267565b80630c5d8b941461026c57806312065fe0146102a9578063158ef93e146102d45780631c7495f8146102ff578063203950721461032a575b600080fd5b34801561027857600080fd5b50610293600480360381019061028e9190612b87565b610a4b565b6040516102a09190612bcd565b60405180910390f35b3480156102b557600080fd5b506102be610bec565b6040516102cb9190612bcd565b60405180910390f35b3480156102e057600080fd5b506102e9610bf4565b6040516102f69190612c03565b60405180910390f35b34801561030b57600080fd5b50610314610c07565b6040516103219190612bcd565b60405180910390f35b34801561033657600080fd5b50610351600480360381019061034c9190612c4a565b610c0d565b60405161035e9190612bcd565b60405180910390f35b34801561037357600080fd5b5061038e60048036038101906103899190612c4a565b610c41565b60405161039b9190612bcd565b60405180910390f35b3480156103b057600080fd5b506103b9610c56565b6040516103c69190612bcd565b60405180910390f35b3480156103db57600080fd5b506103f660048036038101906103f19190612c4a565b610c5c565b005b34801561040457600080fd5b5061040d610cf4565b60405161041a9190612bcd565b60405180910390f35b34801561042f57600080fd5b50610438610cfa565b6040516104459190612c98565b60405180910390f35b610456610d20565b005b34801561046457600080fd5b5061046d610e75565b005b34801561047b57600080fd5b5061049660048036038101906104919190612b87565b61115e565b6040516104a39190612bcd565b60405180910390f35b3480156104b857600080fd5b506104c161124c565b6040516104ce9190612c98565b60405180910390f35b3480156104e357600080fd5b506104fe60048036038101906104f99190612c4a565b611272565b60405161050b9190612bcd565b60405180910390f35b34801561052057600080fd5b50610529611287565b6040516105369190612bcd565b60405180910390f35b34801561054b57600080fd5b5061056660048036038101906105619190612b87565b61128d565b604051610574929190612cb3565b60405180910390f35b34801561058957600080fd5b506105926112f1565b005b3480156105a057600080fd5b506105a9611349565b6040516105b69190612bcd565b60405180910390f35b3480156105cb57600080fd5b506105e660048036038101906105e19190612b87565b61134f565b6040516105f39190612bcd565b60405180910390f35b34801561060857600080fd5b50610611611464565b005b34801561061f57600080fd5b5061063a60048036038101906106359190612b87565b611478565b005b34801561064857600080fd5b50610651611534565b60405161065e9190612bcd565b60405180910390f35b34801561067357600080fd5b5061067c61153a565b6040516106899190612ceb565b60405180910390f35b34801561069e57600080fd5b506106a7611563565b6040516106b49190612bcd565b60405180910390f35b3480156106c957600080fd5b506106d2611569565b6040516106df9190612bcd565b60405180910390f35b3480156106f457600080fd5b506106fd61156f565b60405161070a9190612bcd565b60405180910390f35b34801561071f57600080fd5b5061073a60048036038101906107359190612b87565b611575565b60405161074d9796959493929190612d06565b60405180910390f35b34801561076257600080fd5b5061077d60048036038101906107789190612d75565b6115d7565b60405161078a9190612bcd565b60405180910390f35b34801561079f57600080fd5b506107ba60048036038101906107b59190612d75565b611632565b6040516107c79190612bcd565b60405180910390f35b3480156107dc57600080fd5b506107f760048036038101906107f29190612b87565b61168d565b6040516108049190612bcd565b60405180910390f35b34801561081957600080fd5b506108226116f5565b60405161082f9190612bcd565b60405180910390f35b34801561084457600080fd5b5061085f600480360381019061085a9190612b87565b6116fb565b005b34801561086d57600080fd5b506108766117b7565b6040516108839190612bcd565b60405180910390f35b34801561089857600080fd5b506108b360048036038101906108ae9190612b87565b6117bd565b6040516108c09190612bcd565b60405180910390f35b3480156108d557600080fd5b506108de6117e2565b6040516108eb9190612bcd565b60405180910390f35b34801561090057600080fd5b506109096117e8565b6040516109169190612bcd565b60405180910390f35b34801561092b57600080fd5b5061094660048036038101906109419190612c4a565b6117ee565b6040516109539190612bcd565b60405180910390f35b34801561096857600080fd5b50610983600480360381019061097e9190612b87565b611812565b005b61099f600480360381019061099a9190612de1565b611896565b005b3480156109ad57600080fd5b506109b6611f09565b6040516109c39190612bcd565b60405180910390f35b3480156109d857600080fd5b506109f360048036038101906109ee9190612b87565b611f0f565b604051610a009190612bcd565b60405180910390f35b348015610a1557600080fd5b50610a1e61200e565b005b348015610a2c57600080fd5b50610a35612325565b604051610a429190612c98565b60405180910390f35b600080601660008473ffffffffffffffffffffffffffffffffffffffff1673ffffffffffffffffffffffffffffffffffffffff1681526020019081526020016000206040518060e00160405290816000820160009054906101000a900473ffffffffffffffffffffffffffffffffffffffff1673ffffffffffffffffffffffffffffffffffffffff1673ffffffffffffffffffffffffffffffffffffffff168152602001600182015481526020016002820154815260200160038201548152602001600482015481526020016005820154815260200160068201548152505090506000610b7d600a610b6f600554610b61600a610b53600f544261237790919063ffffffff16565b61236190919063ffffffff16565b61234b90919063ffffffff16565b61234b90919063ffffffff16565b6001610b899190612e3d565b90506000610ba282600d5461236190919063ffffffff16565b90506000610bb982681b1ae4d6e2ef50000061238d565b90506000811415610bca57600d5490505b610be184602001518261237790919063ffffffff16565b945050505050919050565b600047905090565b600e60009054906101000a900460ff1681565b60175481565b6000600a600183610c1e9190612e93565b81548110610c2f57610c2e612ec7565b5b90600052602060002001549050919050565b6000610c4f82600354612361565b9050919050565b60065481565b610c646123a6565b601260009054906101000a900473ffffffffffffffffffffffffffffffffffffffff1673ffffffffffffffffffffffffffffffffffffffff1663fa291f6c826040518263ffffffff1660e01b8152600401610cbf9190612bcd565b600060405180830381600087803b158015610cd957600080fd5b505af1158015610ced573d6000803e3d6000fd5b5050505050565b600b5481565b601160009054906101000a900473ffffffffffffffffffffffffffffffffffffffff1681565b610d286123a6565b60003411610d6b576040517f08c379a0000000000000000000000000000000000000000000000000000000008152600401610d6290612f53565b60405180910390fd5b600060175414610db0576040517f08c379a0000000000000000000000000000000000000000000000000000000008152600401610da790612fbf565b60405180910390fd5b600073ffffffffffffffffffffffffffffffffffffffff16601260009054906101000a900473ffffffffffffffffffffffffffffffffffffffff1673ffffffffffffffffffffffffffffffffffffffff161415610e42576040517f08c379a0000000000000000000000000000000000000000000000000000000008152600401610e399061302b565b60405180910390fd5b6001600e60006101000a81548160ff02191690831515021790555042600f81905550610e6d34610c41565b601781905550565b600e60009054906101000a900460ff16610ec4576040517f08c379a0000000000000000000000000000000000000000000000000000000008152600401610ebb90613097565b60405180910390fd5b6000601660003373ffffffffffffffffffffffffffffffffffffffff1673ffffffffffffffffffffffffffffffffffffffff1681526020019081526020016000206040518060e00160405290816000820160009054906101000a900473ffffffffffffffffffffffffffffffffffffffff1673ffffffffffffffffffffffffffffffffffffffff1673ffffffffffffffffffffffffffffffffffffffff168152602001600182015481526020016002820154815260200160038201548152602001600482015481526020016005820154815260200160068201548152505090506000610faf33611f0f565b90506000610fbc82611272565b905080610fc7610bec565b1015611008576040517f08c379a0000000000000000000000000000000000000000000000000000000008152600401610fff90613103565b60405180910390fd5b60008360a0018181525050428360c001818152505082601660003373ffffffffffffffffffffffffffffffffffffffff1673ffffffffffffffffffffffffffffffffffffffff16815260200190815260200160002060008201518160000160006101000a81548173ffffffffffffffffffffffffffffffffffffffff021916908373ffffffffffffffffffffffffffffffffffffffff1602179055506020820151816001015560408201518160020155606082015181600301556080820151816004015560a0820151816005015560c082015181600601559050506110ef60175483612377565b60178190555061111061110182612424565b8261237790919063ffffffff16565b90503373ffffffffffffffffffffffffffffffffffffffff166108fc829081150290604051600060405180830381858888f19350505050158015611158573d6000803e3d6000fd5b50505050565b600080601660008473ffffffffffffffffffffffffffffffffffffffff1673ffffffffffffffffffffffffffffffffffffffff1681526020019081526020016000206040518060e00160405290816000820160009054906101000a900473ffffffffffffffffffffffffffffffffffffffff1673ffffffffffffffffffffffffffffffffffffffff1673ffffffffffffffffffffffffffffffffffffffff168152602001600182015481526020016002820154815260200160038201548152602001600482015481526020016005820154815260200160068201548152505090508060800151915050919050565b601260009054906101000a900473ffffffffffffffffffffffffffffffffffffffff1681565b60006112808260035461234b565b9050919050565b600d5481565b60136020528060005260406000206000915090508060000160009054906101000a900473ffffffffffffffffffffffffffffffffffffffff16908060010160009054906101000a900473ffffffffffffffffffffffffffffffffffffffff16905082565b6112f96123a6565b3373ffffffffffffffffffffffffffffffffffffffff166108fc61131b610bec565b9081150290604051600060405180830381858888f19350505050158015611346573d6000803e3d6000fd5b50565b60085481565b600080601660008473ffffffffffffffffffffffffffffffffffffffff1673ffffffffffffffffffffffffffffffffffffffff1681526020019081526020016000206040518060e00160405290816000820160009054906101000a900473ffffffffffffffffffffffffffffffffffffffff1673ffffffffffffffffffffffffffffffffffffffff1673ffffffffffffffffffffffffffffffffffffffff16815260200160018201548152602001600282015481526020016003820154815260200160048201548152602001600582015481526020016006820154815250509050600061144b600754611446428560c00151612377565b61238d565b905061145b818360800151612361565b92505050919050565b61146c6123a6565b6114766000612535565b565b6114806123a6565b600073ffffffffffffffffffffffffffffffffffffffff168173ffffffffffffffffffffffffffffffffffffffff1614156114f0576040517f08c379a00000000000000000000000000000000000000000000000000000000081526004016114e79061316f565b60405180910390fd5b80601260006101000a81548173ffffffffffffffffffffffffffffffffffffffff021916908373ffffffffffffffffffffffffffffffffffffffff16021790555050565b60045481565b60008060009054906101000a900473ffffffffffffffffffffffffffffffffffffffff16905090565b60055481565b600f5481565b60025481565b60166020528060005260406000206000915090508060000160009054906101000a900473ffffffffffffffffffffffffffffffffffffffff16908060010154908060020154908060030154908060040154908060050154908060060154905087565b6000601560008473ffffffffffffffffffffffffffffffffffffffff1673ffffffffffffffffffffffffffffffffffffffff168152602001908152602001600020600083815260200190815260200160002054905092915050565b6000601460008473ffffffffffffffffffffffffffffffffffffffff1673ffffffffffffffffffffffffffffffffffffffff168152602001908152602001600020600083815260200190815260200160002054905092915050565b6000806116a161169c8461115e565b611272565b905060006116bb826116b6610e10601e612361565b612361565b905060006116d5836116d0610e106019612361565b612361565b90506116eb6116e483836125f9565b600261234b565b9350505050919050565b60075481565b6117036123a6565b600073ffffffffffffffffffffffffffffffffffffffff168173ffffffffffffffffffffffffffffffffffffffff161415611773576040517f08c379a000000000000000000000000000000000000000000000000000000000815260040161176a9061316f565b60405180910390fd5b80601160006101000a81548173ffffffffffffffffffffffffffffffffffffffff021916908373ffffffffffffffffffffffffffffffffffffffff16021790555050565b60035481565b6000806117c983611f0f565b905060006117d682611272565b90508092505050919050565b600c5481565b60015481565b600a81815481106117fe57600080fd5b906000526020600020016000915090505481565b61181a6123a6565b600073ffffffffffffffffffffffffffffffffffffffff168173ffffffffffffffffffffffffffffffffffffffff16141561188a576040517f08c379a000000000000000000000000000000000000000000000000000000000815260040161188190613201565b60405180910390fd5b61189381612535565b50565b600e60009054906101000a900460ff166118e5576040517f08c379a00000000000000000000000000000000000000000000000000000000081526004016118dc90613097565b60405180910390fd5b60015434101561192a576040517f08c379a00000000000000000000000000000000000000000000000000000000081526004016119219061326d565b60405180910390fd5b61193333610a4b565b341115611975576040517f08c379a000000000000000000000000000000000000000000000000000000000815260040161196c906132d9565b60405180910390fd5b600073ffffffffffffffffffffffffffffffffffffffff16601360003373ffffffffffffffffffffffffffffffffffffffff1673ffffffffffffffffffffffffffffffffffffffff16815260200190815260200160002060000160009054906101000a900473ffffffffffffffffffffffffffffffffffffffff1673ffffffffffffffffffffffffffffffffffffffff1614611a7157601360003373ffffffffffffffffffffffffffffffffffffffff1673ffffffffffffffffffffffffffffffffffffffff16815260200190815260200160002060000160009054906101000a900473ffffffffffffffffffffffffffffffffffffffff1690505b8073ffffffffffffffffffffffffffffffffffffffff16601360008373ffffffffffffffffffffffffffffffffffffffff1673ffffffffffffffffffffffffffffffffffffffff16815260200190815260200160002060010160009054906101000a900473ffffffffffffffffffffffffffffffffffffffff1673ffffffffffffffffffffffffffffffffffffffff1614611b41576040517f08c379a0000000000000000000000000000000000000000000000000000000008152600401611b3890613345565b60405180910390fd5b60405180604001604052808273ffffffffffffffffffffffffffffffffffffffff1681526020013373ffffffffffffffffffffffffffffffffffffffff16815250601360003373ffffffffffffffffffffffffffffffffffffffff1673ffffffffffffffffffffffffffffffffffffffff16815260200190815260200160002060008201518160000160006101000a81548173ffffffffffffffffffffffffffffffffffffffff021916908373ffffffffffffffffffffffffffffffffffffffff16021790555060208201518160010160006101000a81548173ffffffffffffffffffffffffffffffffffffffff021916908373ffffffffffffffffffffffffffffffffffffffff1602179055509050506000611c5e348361260f565b9050611c68612ad1565b6000601660003373ffffffffffffffffffffffffffffffffffffffff1673ffffffffffffffffffffffffffffffffffffffff168152602001908152602001600020600101541115611d9657601660003373ffffffffffffffffffffffffffffffffffffffff1673ffffffffffffffffffffffffffffffffffffffff1681526020019081526020016000206040518060e00160405290816000820160009054906101000a900473ffffffffffffffffffffffffffffffffffffffff1673ffffffffffffffffffffffffffffffffffffffff1673ffffffffffffffffffffffffffffffffffffffff16815260200160018201548152602001600282015481526020016003820154815260200160048201548152602001600582015481526020016006820154815250509050611de8565b6040518060e001604052803373ffffffffffffffffffffffffffffffffffffffff1681526020016000815260200160008152602001600081526020016000815260200160008152602001600081525090505b611dff3482602001516125f990919063ffffffff16565b8160200181815250506000611e1383610c41565b9050611e2c818360a001516125f990919063ffffffff16565b8260a001818152505081601660003373ffffffffffffffffffffffffffffffffffffffff1673ffffffffffffffffffffffffffffffffffffffff16815260200190815260200160002060008201518160000160006101000a81548173ffffffffffffffffffffffffffffffffffffffff021916908373ffffffffffffffffffffffffffffffffffffffff1602179055506020820151816001015560408201518160020155606082015181600301556080820151816004015560a0820151816005015560c08201518160060155905050611f0361200e565b50505050565b60095481565b600080601660008473ffffffffffffffffffffffffffffffffffffffff1673ffffffffffffffffffffffffffffffffffffffff1681526020019081526020016000206040518060e00160405290816000820160009054906101000a900473ffffffffffffffffffffffffffffffffffffffff1673ffffffffffffffffffffffffffffffffffffffff1673ffffffffffffffffffffffffffffffffffffffff168152602001600182015481526020016002820154815260200160038201548152602001600482015481526020016005820154815260200160068201548152505090506120068160a001516120018561134f565b6125f9565b915050919050565b600e60009054906101000a900460ff1661205d576040517f08c379a000000000000000000000000000000000000000000000000000000000815260040161205490613097565b60405180910390fd5b6000601660003373ffffffffffffffffffffffffffffffffffffffff1673ffffffffffffffffffffffffffffffffffffffff1681526020019081526020016000206040518060e00160405290816000820160009054906101000a900473ffffffffffffffffffffffffffffffffffffffff1673ffffffffffffffffffffffffffffffffffffffff1673ffffffffffffffffffffffffffffffffffffffff16815260200160018201548152602001600282015481526020016003820154815260200160048201548152602001600582015481526020016006820154815250509050600061214833611f0f565b905060006121553361134f565b905060006121658360075461234b565b90506121758460800151826125f9565b846080018181525050612193836017546125f990919063ffffffff16565b60178190555060008460a0018181525050428460c001818152505083601660003373ffffffffffffffffffffffffffffffffffffffff1673ffffffffffffffffffffffffffffffffffffffff16815260200190815260200160002060008201518160000160006101000a81548173ffffffffffffffffffffffffffffffffffffffff021916908373ffffffffffffffffffffffffffffffffffffffff1602179055506020820151816001015560408201518160020155606082015181600301556080820151816004015560a0820151816005015560c08201518160060155905050600082111561231f57601260009054906101000a900473ffffffffffffffffffffffffffffffffffffffff1673ffffffffffffffffffffffffffffffffffffffff1663fa291f6c6122d06003548561234b90919063ffffffff16565b6040518263ffffffff1660e01b81526004016122ec9190612bcd565b600060405180830381600087803b15801561230657600080fd5b505af115801561231a573d6000803e3d6000fd5b505050505b50505050565b601060009054906101000a900473ffffffffffffffffffffffffffffffffffffffff1681565b600081836123599190613394565b905092915050565b6000818361236f91906133c5565b905092915050565b600081836123859190612e93565b905092915050565b600081831061239c578161239e565b825b905092915050565b6123ae612652565b73ffffffffffffffffffffffffffffffffffffffff166123cc61153a565b73ffffffffffffffffffffffffffffffffffffffff1614612422576040517f08c379a00000000000000000000000000000000000000000000000000000000081526004016124199061346b565b60405180910390fd5b565b600080806124318461265a565b91509150601160009054906101000a900473ffffffffffffffffffffffffffffffffffffffff1673ffffffffffffffffffffffffffffffffffffffff166108fc839081150290604051600060405180830381858888f1935050505015801561249d573d6000803e3d6000fd5b50601260009054906101000a900473ffffffffffffffffffffffffffffffffffffffff1673ffffffffffffffffffffffffffffffffffffffff166108fc829081150290604051600060405180830381858888f19350505050158015612506573d6000803e3d6000fd5b5061252c8161251e84866125f990919063ffffffff16565b6125f990919063ffffffff16565b92505050919050565b60008060009054906101000a900473ffffffffffffffffffffffffffffffffffffffff169050816000806101000a81548173ffffffffffffffffffffffffffffffffffffffff021916908373ffffffffffffffffffffffffffffffffffffffff1602179055508173ffffffffffffffffffffffffffffffffffffffff168173ffffffffffffffffffffffffffffffffffffffff167f8be0079c531659141344cd1fd0a4f28419497f9722a3daafe3b4186f6b6457e060405160405180910390a35050565b600081836126079190612e3d565b905092915050565b600061262c61261d84612424565b8461237790919063ffffffff16565b905061264a61263b848461267e565b8261237790919063ffffffff16565b905092915050565b600033905090565b60008061266983600854612ab3565b61267584600954612ab3565b91509150915091565b60008082905061269084600c54612ab3565b91506000600190506000805b801580156126ac5750600b548311155b15612a2557601060009054906101000a900473ffffffffffffffffffffffffffffffffffffffff1673ffffffffffffffffffffffffffffffffffffffff168473ffffffffffffffffffffffffffffffffffffffff16149050600061273a88600a6001876127199190612e93565b8154811061272a57612729612ec7565b5b9060005260206000200154612ab3565b90506001601560008773ffffffffffffffffffffffffffffffffffffffff1673ffffffffffffffffffffffffffffffffffffffff1681526020019081526020016000206000868152602001908152602001600020600082825461279d9190612e3d565b9250508190555061280781601460008873ffffffffffffffffffffffffffffffffffffffff1673ffffffffffffffffffffffffffffffffffffffff1681526020019081526020016000206000878152602001908152602001600020546125f990919063ffffffff16565b601460008773ffffffffffffffffffffffffffffffffffffffff1673ffffffffffffffffffffffffffffffffffffffff1681526020019081526020016000206000868152602001908152602001600020819055506001601660008773ffffffffffffffffffffffffffffffffffffffff1673ffffffffffffffffffffffffffffffffffffffff16815260200190815260200160002060030160008282546128ae9190612e3d565b9250508190555061290a81601660008873ffffffffffffffffffffffffffffffffffffffff1673ffffffffffffffffffffffffffffffffffffffff168152602001908152602001600020600201546125f990919063ffffffff16565b601660008773ffffffffffffffffffffffffffffffffffffffff1673ffffffffffffffffffffffffffffffffffffffff1681526020019081526020016000206002018190555061296381846125f990919063ffffffff16565b92508473ffffffffffffffffffffffffffffffffffffffff166108fc829081150290604051600060405180830381858888f193505050501580156129ab573d6000803e3d6000fd5b50601360008673ffffffffffffffffffffffffffffffffffffffff1673ffffffffffffffffffffffffffffffffffffffff16815260200190815260200160002060000160009054906101000a900473ffffffffffffffffffffffffffffffffffffffff1694508380612a1c9061348b565b9450505061269c565b60008286612a339190612e93565b90506000811115612aa857601260009054906101000a900473ffffffffffffffffffffffffffffffffffffffff1673ffffffffffffffffffffffffffffffffffffffff166108fc829081150290604051600060405180830381858888f19350505050158015612aa6573d6000803e3d6000fd5b505b505050505092915050565b6000612ac9612ac28484612361565b606461234b565b905092915050565b6040518060e00160405280600073ffffffffffffffffffffffffffffffffffffffff1681526020016000815260200160008152602001600081526020016000815260200160008152602001600081525090565b600080fd5b600073ffffffffffffffffffffffffffffffffffffffff82169050919050565b6000612b5482612b29565b9050919050565b612b6481612b49565b8114612b6f57600080fd5b50565b600081359050612b8181612b5b565b92915050565b600060208284031215612b9d57612b9c612b24565b5b6000612bab84828501612b72565b91505092915050565b6000819050919050565b612bc781612bb4565b82525050565b6000602082019050612be26000830184612bbe565b92915050565b60008115159050919050565b612bfd81612be8565b82525050565b6000602082019050612c186000830184612bf4565b92915050565b612c2781612bb4565b8114612c3257600080fd5b50565b600081359050612c4481612c1e565b92915050565b600060208284031215612c6057612c5f612b24565b5b6000612c6e84828501612c35565b91505092915050565b6000612c8282612b29565b9050919050565b612c9281612c77565b82525050565b6000602082019050612cad6000830184612c89565b92915050565b6000604082019050612cc86000830185612c89565b612cd56020830184612c89565b9392505050565b612ce581612b49565b82525050565b6000602082019050612d006000830184612cdc565b92915050565b600060e082019050612d1b600083018a612cdc565b612d286020830189612bbe565b612d356040830188612bbe565b612d426060830187612bbe565b612d4f6080830186612bbe565b612d5c60a0830185612bbe565b612d6960c0830184612bbe565b98975050505050505050565b60008060408385031215612d8c57612d8b612b24565b5b6000612d9a85828601612b72565b9250506020612dab85828601612c35565b9150509250929050565b612dbe81612c77565b8114612dc957600080fd5b50565b600081359050612ddb81612db5565b92915050565b600060208284031215612df757612df6612b24565b5b6000612e0584828501612dcc565b91505092915050565b7f4e487b7100000000000000000000000000000000000000000000000000000000600052601160045260246000fd5b6000612e4882612bb4565b9150612e5383612bb4565b9250827fffffffffffffffffffffffffffffffffffffffffffffffffffffffffffffffff03821115612e8857612e87612e0e565b5b828201905092915050565b6000612e9e82612bb4565b9150612ea983612bb4565b925082821015612ebc57612ebb612e0e565b5b828203905092915050565b7f4e487b7100000000000000000000000000000000000000000000000000000000600052603260045260246000fd5b600082825260208201905092915050565b7f4e45454420534f4d452045544800000000000000000000000000000000000000600082015250565b6000612f3d600d83612ef6565b9150612f4882612f07565b602082019050919050565b60006020820190508181036000830152612f6c81612f30565b9050919050565b7f4d41524b4554204953204e4f5420454d50545900000000000000000000000000600082015250565b6000612fa9601383612ef6565b9150612fb482612f73565b602082019050919050565b60006020820190508181036000830152612fd881612f9c565b9050919050565b7f5641554c542041444452455353204e4f54205345540000000000000000000000600082015250565b6000613015601583612ef6565b915061302082612fdf565b602082019050919050565b6000602082019050818103600083015261304481613008565b9050919050565b7f4e4f5420494e495449414c495a45440000000000000000000000000000000000600082015250565b6000613081600f83612ef6565b915061308c8261304b565b602082019050919050565b600060208201905081810360008301526130b081613074565b9050919050565b7f4e4f5420454e4f5547482042414c414e43450000000000000000000000000000600082015250565b60006130ed601283612ef6565b91506130f8826130b7565b602082019050919050565b6000602082019050818103600083015261311c816130e0565b9050919050565b7f5a45524f20414444524553530000000000000000000000000000000000000000600082015250565b6000613159600c83612ef6565b915061316482613123565b602082019050919050565b600060208201905081810360008301526131888161314c565b9050919050565b7f4f776e61626c653a206e6577206f776e657220697320746865207a65726f206160008201527f6464726573730000000000000000000000000000000000000000000000000000602082015250565b60006131eb602683612ef6565b91506131f68261318f565b604082019050919050565b6000602082019050818103600083015261321a816131de565b9050919050565b7f4445504f534954204d494e494d554d2056414c55450000000000000000000000600082015250565b6000613257601583612ef6565b915061326282613221565b602082019050919050565b600060208201905081810360008301526132868161324a565b9050919050565b7f4445504f5349542056414c55452045584345454453204d415800000000000000600082015250565b60006132c3601983612ef6565b91506132ce8261328d565b602082019050919050565b600060208201905081810360008301526132f2816132b6565b9050919050565b7f494e5649544552204d5553542045584953540000000000000000000000000000600082015250565b600061332f601283612ef6565b915061333a826132f9565b602082019050919050565b6000602082019050818103600083015261335e81613322565b9050919050565b7f4e487b7100000000000000000000000000000000000000000000000000000000600052601260045260246000fd5b600061339f82612bb4565b91506133aa83612bb4565b9250826133ba576133b9613365565b5b828204905092915050565b60006133d082612bb4565b91506133db83612bb4565b9250817fffffffffffffffffffffffffffffffffffffffffffffffffffffffffffffffff048311821515161561341457613413612e0e565b5b828202905092915050565b7f4f776e61626c653a2063616c6c6572206973206e6f7420746865206f776e6572600082015250565b6000613455602083612ef6565b91506134608261341f565b602082019050919050565b6000602082019050818103600083015261348481613448565b9050919050565b600061349682612bb4565b91507fffffffffffffffffffffffffffffffffffffffffffffffffffffffffffffffff8214156134c9576134c8612e0e565b5b60018201905091905056fea26469706673582212202eda2b2b990840b8e19be178262d8c9a231784e669b64ee05eb616345d3132d464736f6c634300080c0033",
  "linkReferences": {},
  "deployedLinkReferences": {}
}