{
  "_format": "hh-sol-artifact-1",
  "contractName": "BNBHiveVault",
  "sourceName": "contracts/BNBHiveVault.sol",
  "abi": [
    {
      "inputs": [
        {
          "internalType": "address",
          "name": "_hiveAddress",
          "type": "address"
        }
      ],
      "stateMutability": "nonpayable",
      "type": "constructor"
    },
    {
      "stateMutability": "payable",
      "type": "fallback"
    },
    {
      "inputs": [
        {
          "internalType": "address",
          "name": "newOwner",
          "type": "address"
        }
      ],
      "name": "ChangeOwner",
      "outputs": [],
      "stateMutability": "view",
      "type": "function"
    },
    {
      "inputs": [
        {
          "internalType": "uint256",
          "name": "amount",
          "type": "uint256"
        }
      ],
      "name": "fundHive",
      "outputs": [],
      "stateMutability": "nonpayable",
      "type": "function"
    },
    {
      "inputs": [],
      "name": "getAll",
      "outputs": [],
      "stateMutability": "nonpayable",
      "type": "function"
    },
    {
      "inputs": [],
      "name": "getBalance",
      "outputs": [
        {
          "internalType": "uint256",
          "name": "",
          "type": "uint256"
        }
      ],
      "stateMutability": "view",
      "type": "function"
    },
    {
      "stateMutability": "payable",
      "type": "receive"
    }
  ],
  "bytecode": "0x608060405234801561001057600080fd5b506040516106da3803806106da8339818101604052810190610032919061011c565b806000806101000a81548173ffffffffffffffffffffffffffffffffffffffff021916908373ffffffffffffffffffffffffffffffffffffffff16021790555033600160006101000a81548173ffffffffffffffffffffffffffffffffffffffff021916908373ffffffffffffffffffffffffffffffffffffffff16021790555050610149565b600080fd5b600073ffffffffffffffffffffffffffffffffffffffff82169050919050565b60006100e9826100be565b9050919050565b6100f9816100de565b811461010457600080fd5b50565b600081519050610116816100f0565b92915050565b600060208284031215610132576101316100b9565b5b600061014084828501610107565b91505092915050565b610582806101586000396000f3fe6080604052600436106100435760003560e01c806312065fe01461004c57806353ed514314610077578063f28532921461008e578063fa291f6c146100b75761004a565b3661004a57005b005b34801561005857600080fd5b506100616100e0565b60405161006e91906103cb565b60405180910390f35b34801561008357600080fd5b5061008c6100e8565b005b34801561009a57600080fd5b506100b560048036038101906100b09190610449565b6101b3565b005b3480156100c357600080fd5b506100de60048036038101906100d991906104a2565b610236565b005b600047905090565b600160009054906101000a900473ffffffffffffffffffffffffffffffffffffffff1673ffffffffffffffffffffffffffffffffffffffff163373ffffffffffffffffffffffffffffffffffffffff161461014257600080fd5b6000479050600160009054906101000a900473ffffffffffffffffffffffffffffffffffffffff1673ffffffffffffffffffffffffffffffffffffffff166108fc829081150290604051600060405180830381858888f193505050501580156101af573d6000803e3d6000fd5b5050565b600160009054906101000a900473ffffffffffffffffffffffffffffffffffffffff1673ffffffffffffffffffffffffffffffffffffffff163373ffffffffffffffffffffffffffffffffffffffff161461020d57600080fd5b8073ffffffffffffffffffffffffffffffffffffffff16600160009054906101000a9050505050565b60008054906101000a900473ffffffffffffffffffffffffffffffffffffffff1673ffffffffffffffffffffffffffffffffffffffff163373ffffffffffffffffffffffffffffffffffffffff16146102c4576040517f08c379a00000000000000000000000000000000000000000000000000000000081526004016102bb9061052c565b60405180910390fd5b600047905081811061033c5760008054906101000a900473ffffffffffffffffffffffffffffffffffffffff1673ffffffffffffffffffffffffffffffffffffffff166108fc839081150290604051600060405180830381858888f19350505050158015610336573d6000803e3d6000fd5b506103ae565b60008111156103ad5760008054906101000a900473ffffffffffffffffffffffffffffffffffffffff1673ffffffffffffffffffffffffffffffffffffffff166108fc829081150290604051600060405180830381858888f193505050501580156103ab573d6000803e3d6000fd5b505b5b5050565b6000819050919050565b6103c5816103b2565b82525050565b60006020820190506103e060008301846103bc565b92915050565b600080fd5b600073ffffffffffffffffffffffffffffffffffffffff82169050919050565b6000610416826103eb565b9050919050565b6104268161040b565b811461043157600080fd5b50565b6000813590506104438161041d565b92915050565b60006020828403121561045f5761045e6103e6565b5b600061046d84828501610434565b91505092915050565b61047f816103b2565b811461048a57600080fd5b50565b60008135905061049c81610476565b92915050565b6000602082840312156104b8576104b76103e6565b5b60006104c68482850161048d565b91505092915050565b600082825260208201905092915050565b7f4f6e6c7920486976650000000000000000000000000000000000000000000000600082015250565b60006105166009836104cf565b9150610521826104e0565b602082019050919050565b6000602082019050818103600083015261054581610509565b905091905056fea264697066735822122016098e4335aa0c885d141913d5778a10f644c6e6cb759392e6d6825440d53d5764736f6c634300080c0033",
  "linkReferences": {},
  "deployedLinkReferences": {}
}