{
  "_format": "hh-sol-artifact-1",
  "contractName": "BNBHiveVault",
  "sourceName": "contracts/BNBHiveVault.sol",
  "abi": [
    {
      "inputs": [
        {
          "internalType": "address",
          "name": "_hiveAddress",
          "type": "address"
        }
      ],
      "stateMutability": "nonpayable",
      "type": "constructor"
    },
    {
      "stateMutability": "payable",
      "type": "fallback"
    },
    {
      "inputs": [
        {
          "internalType": "uint256",
          "name": "amount",
          "type": "uint256"
        }
      ],
      "name": "fundHive",
      "outputs": [],
      "stateMutability": "nonpayable",
      "type": "function"
    },
    {
      "inputs": [],
      "name": "getAll",
      "outputs": [],
      "stateMutability": "nonpayable",
      "type": "function"
    },
    {
      "inputs": [],
      "name": "getBalance",
      "outputs": [
        {
          "internalType": "uint256",
          "name": "",
          "type": "uint256"
        }
      ],
      "stateMutability": "view",
      "type": "function"
    },
    {
      "stateMutability": "payable",
      "type": "receive"
    }
  ],
  "bytecode": "0x608060405234801561001057600080fd5b506040516105983803806105988339818101604052810190610032919061011c565b806000806101000a81548173ffffffffffffffffffffffffffffffffffffffff021916908373ffffffffffffffffffffffffffffffffffffffff16021790555033600160006101000a81548173ffffffffffffffffffffffffffffffffffffffff021916908373ffffffffffffffffffffffffffffffffffffffff16021790555050610149565b600080fd5b600073ffffffffffffffffffffffffffffffffffffffff82169050919050565b60006100e9826100be565b9050919050565b6100f9816100de565b811461010457600080fd5b50565b600081519050610116816100f0565b92915050565b600060208284031215610132576101316100b9565b5b600061014084828501610107565b91505092915050565b610440806101586000396000f3fe6080604052600436106100385760003560e01c806312065fe01461004157806353ed51431461006c578063fa291f6c146100835761003f565b3661003f57005b005b34801561004d57600080fd5b506100566100ac565b6040516100639190610314565b60405180910390f35b34801561007857600080fd5b506100816100b4565b005b34801561008f57600080fd5b506100aa60048036038101906100a59190610360565b61017f565b005b600047905090565b600160009054906101000a900473ffffffffffffffffffffffffffffffffffffffff1673ffffffffffffffffffffffffffffffffffffffff163373ffffffffffffffffffffffffffffffffffffffff161461010e57600080fd5b6000479050600160009054906101000a900473ffffffffffffffffffffffffffffffffffffffff1673ffffffffffffffffffffffffffffffffffffffff166108fc829081150290604051600060405180830381858888f1935050505015801561017b573d6000803e3d6000fd5b5050565b60008054906101000a900473ffffffffffffffffffffffffffffffffffffffff1673ffffffffffffffffffffffffffffffffffffffff163373ffffffffffffffffffffffffffffffffffffffff161461020d576040517f08c379a0000000000000000000000000000000000000000000000000000000008152600401610204906103ea565b60405180910390fd5b60004790508181106102855760008054906101000a900473ffffffffffffffffffffffffffffffffffffffff1673ffffffffffffffffffffffffffffffffffffffff166108fc839081150290604051600060405180830381858888f1935050505015801561027f573d6000803e3d6000fd5b506102f7565b60008111156102f65760008054906101000a900473ffffffffffffffffffffffffffffffffffffffff1673ffffffffffffffffffffffffffffffffffffffff166108fc829081150290604051600060405180830381858888f193505050501580156102f4573d6000803e3d6000fd5b505b5b5050565b6000819050919050565b61030e816102fb565b82525050565b60006020820190506103296000830184610305565b92915050565b600080fd5b61033d816102fb565b811461034857600080fd5b50565b60008135905061035a81610334565b92915050565b6000602082840312156103765761037561032f565b5b60006103848482850161034b565b91505092915050565b600082825260208201905092915050565b7f4f6e6c7920486976650000000000000000000000000000000000000000000000600082015250565b60006103d460098361038d565b91506103df8261039e565b602082019050919050565b60006020820190508181036000830152610403816103c7565b905091905056fea2646970667358221220c6e141e7984ae8f1f6246c324870e10ad2150e26b8468207c4fd37a1f0d622ff64736f6c634300080c0033",
  "linkReferences": {},
  "deployedLinkReferences": {}
}