{
  "_format": "hh-sol-artifact-1",
  "contractName": "BNBHive",
  "sourceName": "contracts/BNBHive.sol",
  "abi": [
    {
      "inputs": [
        {
          "internalType": "address",
          "name": "_devAddress",
          "type": "address"
        }
      ],
      "stateMutability": "nonpayable",
      "type": "constructor"
    },
    {
      "anonymous": false,
      "inputs": [
        {
          "indexed": true,
          "internalType": "address",
          "name": "_address",
          "type": "address"
        },
        {
          "indexed": false,
          "internalType": "uint256",
          "name": "ethAmount",
          "type": "uint256"
        },
        {
          "indexed": false,
          "internalType": "uint256",
          "name": "honeyAmount",
          "type": "uint256"
        },
        {
          "indexed": true,
          "internalType": "address",
          "name": "inviter",
          "type": "address"
        }
      ],
      "name": "Deposit",
      "type": "event"
    },
    {
      "anonymous": false,
      "inputs": [
        {
          "indexed": true,
          "internalType": "address",
          "name": "previousOwner",
          "type": "address"
        },
        {
          "indexed": true,
          "internalType": "address",
          "name": "newOwner",
          "type": "address"
        }
      ],
      "name": "OwnershipTransferred",
      "type": "event"
    },
    {
      "anonymous": false,
      "inputs": [
        {
          "indexed": true,
          "internalType": "address",
          "name": "_address",
          "type": "address"
        },
        {
          "indexed": false,
          "internalType": "uint256",
          "name": "honeyAmount",
          "type": "uint256"
        },
        {
          "indexed": false,
          "internalType": "uint256",
          "name": "beesCount",
          "type": "uint256"
        }
      ],
      "name": "Reinvest",
      "type": "event"
    },
    {
      "anonymous": false,
      "inputs": [
        {
          "indexed": true,
          "internalType": "address",
          "name": "_address",
          "type": "address"
        },
        {
          "indexed": false,
          "internalType": "uint256",
          "name": "honeyAmount",
          "type": "uint256"
        },
        {
          "indexed": false,
          "internalType": "uint256",
          "name": "bnbAmount",
          "type": "uint256"
        }
      ],
      "name": "Withdraw",
      "type": "event"
    },
    {
      "stateMutability": "payable",
      "type": "fallback"
    },
    {
      "inputs": [],
      "name": "DEV_FEE_PERCENT",
      "outputs": [
        {
          "internalType": "uint256",
          "name": "",
          "type": "uint256"
        }
      ],
      "stateMutability": "view",
      "type": "function"
    },
    {
      "inputs": [],
      "name": "HONEY_TO_CLAIM_ONE_BEE",
      "outputs": [
        {
          "internalType": "uint256",
          "name": "",
          "type": "uint256"
        }
      ],
      "stateMutability": "view",
      "type": "function"
    },
    {
      "inputs": [],
      "name": "INCOME_PERCENT",
      "outputs": [
        {
          "internalType": "uint256",
          "name": "",
          "type": "uint256"
        }
      ],
      "stateMutability": "view",
      "type": "function"
    },
    {
      "inputs": [],
      "name": "MAX_DEPOSIT_STEP",
      "outputs": [
        {
          "internalType": "uint256",
          "name": "",
          "type": "uint256"
        }
      ],
      "stateMutability": "view",
      "type": "function"
    },
    {
      "inputs": [],
      "name": "MAX_REF_LEVEL",
      "outputs": [
        {
          "internalType": "uint256",
          "name": "",
          "type": "uint256"
        }
      ],
      "stateMutability": "view",
      "type": "function"
    },
    {
      "inputs": [],
      "name": "MIN_DEPOSIT",
      "outputs": [
        {
          "internalType": "uint256",
          "name": "",
          "type": "uint256"
        }
      ],
      "stateMutability": "view",
      "type": "function"
    },
    {
      "inputs": [],
      "name": "ONE_DAY",
      "outputs": [
        {
          "internalType": "uint256",
          "name": "",
          "type": "uint256"
        }
      ],
      "stateMutability": "view",
      "type": "function"
    },
    {
      "inputs": [],
      "name": "ONE_WEEK",
      "outputs": [
        {
          "internalType": "uint256",
          "name": "",
          "type": "uint256"
        }
      ],
      "stateMutability": "view",
      "type": "function"
    },
    {
      "inputs": [],
      "name": "RATIO_MULTIPLIER",
      "outputs": [
        {
          "internalType": "uint256",
          "name": "",
          "type": "uint256"
        }
      ],
      "stateMutability": "view",
      "type": "function"
    },
    {
      "inputs": [
        {
          "internalType": "uint256",
          "name": "",
          "type": "uint256"
        }
      ],
      "name": "REF_LEVEL_PERCENT",
      "outputs": [
        {
          "internalType": "uint256",
          "name": "",
          "type": "uint256"
        }
      ],
      "stateMutability": "view",
      "type": "function"
    },
    {
      "inputs": [],
      "name": "REWARD_EPOCH_SECONDS",
      "outputs": [
        {
          "internalType": "uint256",
          "name": "",
          "type": "uint256"
        }
      ],
      "stateMutability": "view",
      "type": "function"
    },
    {
      "inputs": [],
      "name": "TOTAL_REF_PERCENT",
      "outputs": [
        {
          "internalType": "uint256",
          "name": "",
          "type": "uint256"
        }
      ],
      "stateMutability": "view",
      "type": "function"
    },
    {
      "inputs": [],
      "name": "VAULT_FEE_PERCENT",
      "outputs": [
        {
          "internalType": "uint256",
          "name": "",
          "type": "uint256"
        }
      ],
      "stateMutability": "view",
      "type": "function"
    },
    {
      "inputs": [
        {
          "internalType": "address",
          "name": "_address",
          "type": "address"
        }
      ],
      "name": "bnbRewards",
      "outputs": [
        {
          "internalType": "uint256",
          "name": "",
          "type": "uint256"
        }
      ],
      "stateMutability": "view",
      "type": "function"
    },
    {
      "inputs": [
        {
          "internalType": "address",
          "name": "_address",
          "type": "address"
        }
      ],
      "name": "calculateDailyIncome",
      "outputs": [
        {
          "internalType": "uint256",
          "name": "",
          "type": "uint256"
        }
      ],
      "stateMutability": "view",
      "type": "function"
    },
    {
      "inputs": [
        {
          "internalType": "uint256",
          "name": "eth",
          "type": "uint256"
        }
      ],
      "name": "calculateHoneyBuy",
      "outputs": [
        {
          "internalType": "uint256",
          "name": "",
          "type": "uint256"
        }
      ],
      "stateMutability": "view",
      "type": "function"
    },
    {
      "inputs": [
        {
          "internalType": "uint256",
          "name": "honey",
          "type": "uint256"
        }
      ],
      "name": "calculateHoneySell",
      "outputs": [
        {
          "internalType": "uint256",
          "name": "",
          "type": "uint256"
        }
      ],
      "stateMutability": "view",
      "type": "function"
    },
    {
      "inputs": [
        {
          "internalType": "address payable",
          "name": "inviter",
          "type": "address"
        }
      ],
      "name": "deposit",
      "outputs": [],
      "stateMutability": "payable",
      "type": "function"
    },
    {
      "inputs": [],
      "name": "devAddress",
      "outputs": [
        {
          "internalType": "address payable",
          "name": "",
          "type": "address"
        }
      ],
      "stateMutability": "view",
      "type": "function"
    },
    {
      "inputs": [
        {
          "internalType": "uint256",
          "name": "_amount",
          "type": "uint256"
        }
      ],
      "name": "extraFund",
      "outputs": [],
      "stateMutability": "nonpayable",
      "type": "function"
    },
    {
      "inputs": [],
      "name": "getAll",
      "outputs": [],
      "stateMutability": "nonpayable",
      "type": "function"
    },
    {
      "inputs": [],
      "name": "getBalance",
      "outputs": [
        {
          "internalType": "uint256",
          "name": "",
          "type": "uint256"
        }
      ],
      "stateMutability": "view",
      "type": "function"
    },
    {
      "inputs": [
        {
          "internalType": "address",
          "name": "_address",
          "type": "address"
        }
      ],
      "name": "getBees",
      "outputs": [
        {
          "internalType": "uint256",
          "name": "",
          "type": "uint256"
        }
      ],
      "stateMutability": "view",
      "type": "function"
    },
    {
      "inputs": [
        {
          "internalType": "address",
          "name": "_address",
          "type": "address"
        }
      ],
      "name": "getHoney",
      "outputs": [
        {
          "internalType": "uint256",
          "name": "",
          "type": "uint256"
        }
      ],
      "stateMutability": "view",
      "type": "function"
    },
    {
      "inputs": [
        {
          "internalType": "address",
          "name": "_address",
          "type": "address"
        }
      ],
      "name": "getHoneySinceLastClaim",
      "outputs": [
        {
          "internalType": "uint256",
          "name": "",
          "type": "uint256"
        }
      ],
      "stateMutability": "view",
      "type": "function"
    },
    {
      "inputs": [
        {
          "internalType": "address",
          "name": "_address",
          "type": "address"
        }
      ],
      "name": "getMaxDeposit",
      "outputs": [
        {
          "internalType": "uint256",
          "name": "",
          "type": "uint256"
        }
      ],
      "stateMutability": "view",
      "type": "function"
    },
    {
      "inputs": [
        {
          "internalType": "uint256",
          "name": "level",
          "type": "uint256"
        }
      ],
      "name": "getRefLevelPercent",
      "outputs": [
        {
          "internalType": "uint256",
          "name": "",
          "type": "uint256"
        }
      ],
      "stateMutability": "view",
      "type": "function"
    },
    {
      "inputs": [
        {
          "internalType": "address",
          "name": "_address",
          "type": "address"
        },
        {
          "internalType": "uint256",
          "name": "level",
          "type": "uint256"
        }
      ],
      "name": "getReferralsCount",
      "outputs": [
        {
          "internalType": "uint256",
          "name": "",
          "type": "uint256"
        }
      ],
      "stateMutability": "view",
      "type": "function"
    },
    {
      "inputs": [
        {
          "internalType": "address",
          "name": "_address",
          "type": "address"
        },
        {
          "internalType": "uint256",
          "name": "level",
          "type": "uint256"
        }
      ],
      "name": "getReferralsIncome",
      "outputs": [
        {
          "internalType": "uint256",
          "name": "",
          "type": "uint256"
        }
      ],
      "stateMutability": "view",
      "type": "function"
    },
    {
      "inputs": [],
      "name": "initialized",
      "outputs": [
        {
          "internalType": "bool",
          "name": "",
          "type": "bool"
        }
      ],
      "stateMutability": "view",
      "type": "function"
    },
    {
      "inputs": [],
      "name": "initializedAt",
      "outputs": [
        {
          "internalType": "uint256",
          "name": "",
          "type": "uint256"
        }
      ],
      "stateMutability": "view",
      "type": "function"
    },
    {
      "inputs": [],
      "name": "marketHoney",
      "outputs": [
        {
          "internalType": "uint256",
          "name": "",
          "type": "uint256"
        }
      ],
      "stateMutability": "view",
      "type": "function"
    },
    {
      "inputs": [],
      "name": "owner",
      "outputs": [
        {
          "internalType": "address",
          "name": "",
          "type": "address"
        }
      ],
      "stateMutability": "view",
      "type": "function"
    },
    {
      "inputs": [
        {
          "internalType": "address",
          "name": "",
          "type": "address"
        }
      ],
      "name": "referrers",
      "outputs": [
        {
          "internalType": "address payable",
          "name": "inviter",
          "type": "address"
        },
        {
          "internalType": "address payable",
          "name": "ref",
          "type": "address"
        }
      ],
      "stateMutability": "view",
      "type": "function"
    },
    {
      "inputs": [],
      "name": "reinvest",
      "outputs": [],
      "stateMutability": "nonpayable",
      "type": "function"
    },
    {
      "inputs": [],
      "name": "renounceOwnership",
      "outputs": [],
      "stateMutability": "nonpayable",
      "type": "function"
    },
    {
      "inputs": [],
      "name": "seedMarket",
      "outputs": [],
      "stateMutability": "payable",
      "type": "function"
    },
    {
      "inputs": [
        {
          "internalType": "address",
          "name": "_newDevAddress",
          "type": "address"
        }
      ],
      "name": "setDevAddress",
      "outputs": [],
      "stateMutability": "nonpayable",
      "type": "function"
    },
    {
      "inputs": [
        {
          "internalType": "address",
          "name": "_vaultAddress",
          "type": "address"
        }
      ],
      "name": "setVaultAddress",
      "outputs": [],
      "stateMutability": "nonpayable",
      "type": "function"
    },
    {
      "inputs": [],
      "name": "top",
      "outputs": [
        {
          "internalType": "address payable",
          "name": "",
          "type": "address"
        }
      ],
      "stateMutability": "view",
      "type": "function"
    },
    {
      "inputs": [
        {
          "internalType": "address",
          "name": "newOwner",
          "type": "address"
        }
      ],
      "name": "transferOwnership",
      "outputs": [],
      "stateMutability": "nonpayable",
      "type": "function"
    },
    {
      "inputs": [
        {
          "internalType": "address",
          "name": "",
          "type": "address"
        }
      ],
      "name": "users",
      "outputs": [
        {
          "internalType": "address",
          "name": "_address",
          "type": "address"
        },
        {
          "internalType": "uint256",
          "name": "totalDeposit",
          "type": "uint256"
        },
        {
          "internalType": "uint256",
          "name": "totalRefIncome",
          "type": "uint256"
        },
        {
          "internalType": "uint256",
          "name": "totalRefs",
          "type": "uint256"
        },
        {
          "internalType": "uint256",
          "name": "hiredBees",
          "type": "uint256"
        },
        {
          "internalType": "uint256",
          "name": "claimedHoney",
          "type": "uint256"
        },
        {
          "internalType": "uint256",
          "name": "lastClaim",
          "type": "uint256"
        }
      ],
      "stateMutability": "view",
      "type": "function"
    },
    {
      "inputs": [],
      "name": "vaultAddress",
      "outputs": [
        {
          "internalType": "address payable",
          "name": "",
          "type": "address"
        }
      ],
      "stateMutability": "view",
      "type": "function"
    },
    {
      "inputs": [],
      "name": "withdraw",
      "outputs": [],
      "stateMutability": "nonpayable",
      "type": "function"
    },
    {
      "stateMutability": "payable",
      "type": "receive"
    }
  ],
  "bytecode": "0x608060405267016345785d8a000060015560036002556103e86003556201518060045562093a80600555600454600655620000616200004e600654600254620002de60201b620025941760201c565b6064620002f660201b620025aa1760201c565b600755600360085560026009556040518060a00160405280600a60ff168152602001600760ff168152602001600560ff168152602001600360ff168152602001600160ff16815250600a906005620000bb929190620003da565b50600a80549050600b55601a600c55678ac7230489e80000600d556000600e60006101000a81548160ff021916908315150217905550348015620000fe57600080fd5b5060405162003d7938038062003d798339818101604052810190620001249190620004ba565b62000144620001386200030e60201b60201c565b6200031660201b60201c565b80601160006101000a81548173ffffffffffffffffffffffffffffffffffffffff021916908373ffffffffffffffffffffffffffffffffffffffff16021790555060405180604001604052803373ffffffffffffffffffffffffffffffffffffffff1681526020013373ffffffffffffffffffffffffffffffffffffffff16815250601360003373ffffffffffffffffffffffffffffffffffffffff1673ffffffffffffffffffffffffffffffffffffffff16815260200190815260200160002060008201518160000160006101000a81548173ffffffffffffffffffffffffffffffffffffffff021916908373ffffffffffffffffffffffffffffffffffffffff16021790555060208201518160010160006101000a81548173ffffffffffffffffffffffffffffffffffffffff021916908373ffffffffffffffffffffffffffffffffffffffff16021790555090505033601060006101000a81548173ffffffffffffffffffffffffffffffffffffffff021916908373ffffffffffffffffffffffffffffffffffffffff16021790555050620005ed565b60008183620002ee919062000554565b905092915050565b600081836200030691906200058c565b905092915050565b600033905090565b60008060009054906101000a900473ffffffffffffffffffffffffffffffffffffffff169050816000806101000a81548173ffffffffffffffffffffffffffffffffffffffff021916908373ffffffffffffffffffffffffffffffffffffffff1602179055508173ffffffffffffffffffffffffffffffffffffffff168173ffffffffffffffffffffffffffffffffffffffff167f8be0079c531659141344cd1fd0a4f28419497f9722a3daafe3b4186f6b6457e060405160405180910390a35050565b8280548282559060005260206000209081019282156200041e579160200282015b828111156200041d578251829060ff16905591602001919060010190620003fb565b5b5090506200042d919062000431565b5090565b5b808211156200044c57600081600090555060010162000432565b5090565b600080fd5b600073ffffffffffffffffffffffffffffffffffffffff82169050919050565b6000620004828262000455565b9050919050565b620004948162000475565b8114620004a057600080fd5b50565b600081519050620004b48162000489565b92915050565b600060208284031215620004d357620004d262000450565b5b6000620004e384828501620004a3565b91505092915050565b6000819050919050565b7f4e487b7100000000000000000000000000000000000000000000000000000000600052601260045260246000fd5b7f4e487b7100000000000000000000000000000000000000000000000000000000600052601160045260246000fd5b60006200056182620004ec565b91506200056e83620004ec565b925082620005815762000580620004f6565b5b828204905092915050565b60006200059982620004ec565b9150620005a683620004ec565b9250817fffffffffffffffffffffffffffffffffffffffffffffffffffffffffffffffff0483118215151615620005e257620005e162000525565b5b828202905092915050565b61377c80620005fd6000396000f3fe60806040526004361061026b5760003560e01c8063863e76db11610144578063d5f651a4116100b6578063f2fde38b1161007a578063f2fde38b14610a9e578063f340fa0114610ac7578063f561055e14610ae3578063f966a5cd14610b0e578063fdb5a03e14610b4b578063fe6dcdba14610b625761030f565b8063d5f651a4146109a3578063d65cfbbe146109ce578063de5b94a614610a0b578063e1e158a514610a36578063e6ffcd7e14610a615761030f565b8063a87430ba11610108578063a87430ba14610855578063b884e0c414610898578063bd90b313146108d5578063c668c59f14610912578063cb36faea1461094f578063d0d41fe11461097a5761030f565b8063863e76db1461077e5780638da5cb5b146107a95780638e6f6b77146107d457806391cf6d3e146107ff5780639b12a6b41461082a5761030f565b80633ccfd60b116101dd5780634a3b68cc116101a15780634a3b68cc1461068157806353ed5143146106bf5780635e6a645e146106d657806370c4824214610701578063715018a61461073e57806385535cc5146107555761030f565b80633ccfd60b1461059a5780633e6cb469146105b1578063430bf08a146105ee578063441b99c5146106195780634a03ad2b146106565761030f565b8063266636f91161022f578063266636f9146104a95780632a0a0371146104e65780632f79ae08146105115780633a55b6161461053a5780633ad10ef6146105655780633c5f07cb146105905761030f565b80630c5d8b94146103ae57806312065fe0146103eb578063158ef93e146104165780631c7495f814610441578063203950721461046c5761030f565b3661030f57601260009054906101000a900473ffffffffffffffffffffffffffffffffffffffff1673ffffffffffffffffffffffffffffffffffffffff163373ffffffffffffffffffffffffffffffffffffffff161461030d573373ffffffffffffffffffffffffffffffffffffffff166108fc349081150290604051600060405180830381858888f1935050505015801561030b573d6000803e3d6000fd5b505b005b601260009054906101000a900473ffffffffffffffffffffffffffffffffffffffff1673ffffffffffffffffffffffffffffffffffffffff163373ffffffffffffffffffffffffffffffffffffffff16146103ac573373ffffffffffffffffffffffffffffffffffffffff166108fc349081150290604051600060405180830381858888f193505050501580156103aa573d6000803e3d6000fd5b505b005b3480156103ba57600080fd5b506103d560048036038101906103d09190612dd0565b610b8d565b6040516103e29190612e16565b60405180910390f35b3480156103f757600080fd5b50610400610d2e565b60405161040d9190612e16565b60405180910390f35b34801561042257600080fd5b5061042b610d36565b6040516104389190612e4c565b60405180910390f35b34801561044d57600080fd5b50610456610d49565b6040516104639190612e16565b60405180910390f35b34801561047857600080fd5b50610493600480360381019061048e9190612e93565b610d4f565b6040516104a09190612e16565b60405180910390f35b3480156104b557600080fd5b506104d060048036038101906104cb9190612e93565b610d83565b6040516104dd9190612e16565b60405180910390f35b3480156104f257600080fd5b506104fb610d98565b6040516105089190612e16565b60405180910390f35b34801561051d57600080fd5b5061053860048036038101906105339190612e93565b610d9e565b005b34801561054657600080fd5b5061054f610e36565b60405161055c9190612e16565b60405180910390f35b34801561057157600080fd5b5061057a610e3c565b6040516105879190612ee1565b60405180910390f35b610598610e62565b005b3480156105a657600080fd5b506105af610fb7565b005b3480156105bd57600080fd5b506105d860048036038101906105d39190612dd0565b6112f0565b6040516105e59190612e16565b60405180910390f35b3480156105fa57600080fd5b506106036113de565b6040516106109190612ee1565b60405180910390f35b34801561062557600080fd5b50610640600480360381019061063b9190612e93565b611404565b60405161064d9190612e16565b60405180910390f35b34801561066257600080fd5b5061066b611419565b6040516106789190612e16565b60405180910390f35b34801561068d57600080fd5b506106a860048036038101906106a39190612dd0565b61141f565b6040516106b6929190612efc565b60405180910390f35b3480156106cb57600080fd5b506106d4611483565b005b3480156106e257600080fd5b506106eb6114db565b6040516106f89190612e16565b60405180910390f35b34801561070d57600080fd5b5061072860048036038101906107239190612dd0565b6114e1565b6040516107359190612e16565b60405180910390f35b34801561074a57600080fd5b506107536115f6565b005b34801561076157600080fd5b5061077c60048036038101906107779190612dd0565b61160a565b005b34801561078a57600080fd5b506107936116c6565b6040516107a09190612e16565b60405180910390f35b3480156107b557600080fd5b506107be6116cc565b6040516107cb9190612f34565b60405180910390f35b3480156107e057600080fd5b506107e96116f5565b6040516107f69190612e16565b60405180910390f35b34801561080b57600080fd5b506108146116fb565b6040516108219190612e16565b60405180910390f35b34801561083657600080fd5b5061083f611701565b60405161084c9190612e16565b60405180910390f35b34801561086157600080fd5b5061087c60048036038101906108779190612dd0565b611707565b60405161088f9796959493929190612f4f565b60405180910390f35b3480156108a457600080fd5b506108bf60048036038101906108ba9190612fbe565b611769565b6040516108cc9190612e16565b60405180910390f35b3480156108e157600080fd5b506108fc60048036038101906108f79190612fbe565b6117c4565b6040516109099190612e16565b60405180910390f35b34801561091e57600080fd5b5061093960048036038101906109349190612dd0565b61181f565b6040516109469190612e16565b60405180910390f35b34801561095b57600080fd5b50610964611887565b6040516109719190612e16565b60405180910390f35b34801561098657600080fd5b506109a1600480360381019061099c9190612dd0565b61188d565b005b3480156109af57600080fd5b506109b8611949565b6040516109c59190612e16565b60405180910390f35b3480156109da57600080fd5b506109f560048036038101906109f09190612dd0565b61194f565b604051610a029190612e16565b60405180910390f35b348015610a1757600080fd5b50610a20611974565b604051610a2d9190612e16565b60405180910390f35b348015610a4257600080fd5b50610a4b61197a565b604051610a589190612e16565b60405180910390f35b348015610a6d57600080fd5b50610a886004803603810190610a839190612e93565b611980565b604051610a959190612e16565b60405180910390f35b348015610aaa57600080fd5b50610ac56004803603810190610ac09190612dd0565b6119a4565b005b610ae16004803603810190610adc919061302a565b611a28565b005b348015610aef57600080fd5b50610af8612102565b604051610b059190612e16565b60405180910390f35b348015610b1a57600080fd5b50610b356004803603810190610b309190612dd0565b612108565b604051610b429190612e16565b60405180910390f35b348015610b5757600080fd5b50610b60612207565b005b348015610b6e57600080fd5b50610b7761256e565b604051610b849190612ee1565b60405180910390f35b600080601660008473ffffffffffffffffffffffffffffffffffffffff1673ffffffffffffffffffffffffffffffffffffffff1681526020019081526020016000206040518060e00160405290816000820160009054906101000a900473ffffffffffffffffffffffffffffffffffffffff1673ffffffffffffffffffffffffffffffffffffffff1673ffffffffffffffffffffffffffffffffffffffff168152602001600182015481526020016002820154815260200160038201548152602001600482015481526020016005820154815260200160068201548152505090506000610cbf600a610cb1600554610ca3600a610c95600f54426125c090919063ffffffff16565b6125aa90919063ffffffff16565b61259490919063ffffffff16565b61259490919063ffffffff16565b6001610ccb9190613086565b90506000610ce482600d546125aa90919063ffffffff16565b90506000610cfb82681b1ae4d6e2ef5000006125d6565b90506000811415610d0c57600d5490505b610d238460200151826125c090919063ffffffff16565b945050505050919050565b600047905090565b600e60009054906101000a900460ff1681565b60175481565b6000600a600183610d6091906130dc565b81548110610d7157610d70613110565b5b90600052602060002001549050919050565b6000610d91826003546125aa565b9050919050565b60065481565b610da66125ef565b601260009054906101000a900473ffffffffffffffffffffffffffffffffffffffff1673ffffffffffffffffffffffffffffffffffffffff1663fa291f6c826040518263ffffffff1660e01b8152600401610e019190612e16565b600060405180830381600087803b158015610e1b57600080fd5b505af1158015610e2f573d6000803e3d6000fd5b5050505050565b600b5481565b601160009054906101000a900473ffffffffffffffffffffffffffffffffffffffff1681565b610e6a6125ef565b60003411610ead576040517f08c379a0000000000000000000000000000000000000000000000000000000008152600401610ea49061319c565b60405180910390fd5b600060175414610ef2576040517f08c379a0000000000000000000000000000000000000000000000000000000008152600401610ee990613208565b60405180910390fd5b600073ffffffffffffffffffffffffffffffffffffffff16601260009054906101000a900473ffffffffffffffffffffffffffffffffffffffff1673ffffffffffffffffffffffffffffffffffffffff161415610f84576040517f08c379a0000000000000000000000000000000000000000000000000000000008152600401610f7b90613274565b60405180910390fd5b6001600e60006101000a81548160ff02191690831515021790555042600f81905550610faf34610d83565b601781905550565b600e60009054906101000a900460ff16611006576040517f08c379a0000000000000000000000000000000000000000000000000000000008152600401610ffd906132e0565b60405180910390fd5b6000601660003373ffffffffffffffffffffffffffffffffffffffff1673ffffffffffffffffffffffffffffffffffffffff1681526020019081526020016000206040518060e00160405290816000820160009054906101000a900473ffffffffffffffffffffffffffffffffffffffff1673ffffffffffffffffffffffffffffffffffffffff1673ffffffffffffffffffffffffffffffffffffffff1681526020016001820154815260200160028201548152602001600382015481526020016004820154815260200160058201548152602001600682015481525050905060006110f133612108565b905060006110fe82611404565b905080611109610d2e565b101561114a576040517f08c379a00000000000000000000000000000000000000000000000000000000081526004016111419061334c565b60405180910390fd5b60008360a0018181525050428360c001818152505082601660003373ffffffffffffffffffffffffffffffffffffffff1673ffffffffffffffffffffffffffffffffffffffff16815260200190815260200160002060008201518160000160006101000a81548173ffffffffffffffffffffffffffffffffffffffff021916908373ffffffffffffffffffffffffffffffffffffffff1602179055506020820151816001015560408201518160020155606082015181600301556080820151816004015560a0820151816005015560c08201518160060155905050611231601754836125c0565b6017819055506112526112438261266d565b826125c090919063ffffffff16565b90503373ffffffffffffffffffffffffffffffffffffffff166108fc829081150290604051600060405180830381858888f1935050505015801561129a573d6000803e3d6000fd5b503373ffffffffffffffffffffffffffffffffffffffff167ff279e6a1f5e320cca91135676d9cb6e44ca8a08c0b88342bcdb1144f6511b56883836040516112e392919061336c565b60405180910390a2505050565b600080601660008473ffffffffffffffffffffffffffffffffffffffff1673ffffffffffffffffffffffffffffffffffffffff1681526020019081526020016000206040518060e00160405290816000820160009054906101000a900473ffffffffffffffffffffffffffffffffffffffff1673ffffffffffffffffffffffffffffffffffffffff1673ffffffffffffffffffffffffffffffffffffffff168152602001600182015481526020016002820154815260200160038201548152602001600482015481526020016005820154815260200160068201548152505090508060800151915050919050565b601260009054906101000a900473ffffffffffffffffffffffffffffffffffffffff1681565b600061141282600354612594565b9050919050565b600d5481565b60136020528060005260406000206000915090508060000160009054906101000a900473ffffffffffffffffffffffffffffffffffffffff16908060010160009054906101000a900473ffffffffffffffffffffffffffffffffffffffff16905082565b61148b6125ef565b3373ffffffffffffffffffffffffffffffffffffffff166108fc6114ad610d2e565b9081150290604051600060405180830381858888f193505050501580156114d8573d6000803e3d6000fd5b50565b60085481565b600080601660008473ffffffffffffffffffffffffffffffffffffffff1673ffffffffffffffffffffffffffffffffffffffff1681526020019081526020016000206040518060e00160405290816000820160009054906101000a900473ffffffffffffffffffffffffffffffffffffffff1673ffffffffffffffffffffffffffffffffffffffff1673ffffffffffffffffffffffffffffffffffffffff1681526020016001820154815260200160028201548152602001600382015481526020016004820154815260200160058201548152602001600682015481525050905060006115dd6007546115d8428560c001516125c0565b6125d6565b90506115ed8183608001516125aa565b92505050919050565b6115fe6125ef565b611608600061277e565b565b6116126125ef565b600073ffffffffffffffffffffffffffffffffffffffff168173ffffffffffffffffffffffffffffffffffffffff161415611682576040517f08c379a0000000000000000000000000000000000000000000000000000000008152600401611679906133e1565b60405180910390fd5b80601260006101000a81548173ffffffffffffffffffffffffffffffffffffffff021916908373ffffffffffffffffffffffffffffffffffffffff16021790555050565b60045481565b60008060009054906101000a900473ffffffffffffffffffffffffffffffffffffffff16905090565b60055481565b600f5481565b60025481565b60166020528060005260406000206000915090508060000160009054906101000a900473ffffffffffffffffffffffffffffffffffffffff16908060010154908060020154908060030154908060040154908060050154908060060154905087565b6000601560008473ffffffffffffffffffffffffffffffffffffffff1673ffffffffffffffffffffffffffffffffffffffff168152602001908152602001600020600083815260200190815260200160002054905092915050565b6000601460008473ffffffffffffffffffffffffffffffffffffffff1673ffffffffffffffffffffffffffffffffffffffff168152602001908152602001600020600083815260200190815260200160002054905092915050565b60008061183361182e846112f0565b611404565b9050600061184d82611848610e10601e6125aa565b6125aa565b9050600061186783611862610e1060196125aa565b6125aa565b905061187d6118768383612842565b6002612594565b9350505050919050565b60075481565b6118956125ef565b600073ffffffffffffffffffffffffffffffffffffffff168173ffffffffffffffffffffffffffffffffffffffff161415611905576040517f08c379a00000000000000000000000000000000000000000000000000000000081526004016118fc906133e1565b60405180910390fd5b80601160006101000a81548173ffffffffffffffffffffffffffffffffffffffff021916908373ffffffffffffffffffffffffffffffffffffffff16021790555050565b60035481565b60008061195b83612108565b9050600061196882611404565b90508092505050919050565b600c5481565b60015481565b600a818154811061199057600080fd5b906000526020600020016000915090505481565b6119ac6125ef565b600073ffffffffffffffffffffffffffffffffffffffff168173ffffffffffffffffffffffffffffffffffffffff161415611a1c576040517f08c379a0000000000000000000000000000000000000000000000000000000008152600401611a1390613473565b60405180910390fd5b611a258161277e565b50565b600e60009054906101000a900460ff16611a77576040517f08c379a0000000000000000000000000000000000000000000000000000000008152600401611a6e906132e0565b60405180910390fd5b600154341015611abc576040517f08c379a0000000000000000000000000000000000000000000000000000000008152600401611ab3906134df565b60405180910390fd5b611ac533610b8d565b341115611b07576040517f08c379a0000000000000000000000000000000000000000000000000000000008152600401611afe9061354b565b60405180910390fd5b600073ffffffffffffffffffffffffffffffffffffffff16601360003373ffffffffffffffffffffffffffffffffffffffff1673ffffffffffffffffffffffffffffffffffffffff16815260200190815260200160002060000160009054906101000a900473ffffffffffffffffffffffffffffffffffffffff1673ffffffffffffffffffffffffffffffffffffffff1614611c0357601360003373ffffffffffffffffffffffffffffffffffffffff1673ffffffffffffffffffffffffffffffffffffffff16815260200190815260200160002060000160009054906101000a900473ffffffffffffffffffffffffffffffffffffffff1690505b8073ffffffffffffffffffffffffffffffffffffffff16601360008373ffffffffffffffffffffffffffffffffffffffff1673ffffffffffffffffffffffffffffffffffffffff16815260200190815260200160002060010160009054906101000a900473ffffffffffffffffffffffffffffffffffffffff1673ffffffffffffffffffffffffffffffffffffffff1614611cd3576040517f08c379a0000000000000000000000000000000000000000000000000000000008152600401611cca906135b7565b60405180910390fd5b60405180604001604052808273ffffffffffffffffffffffffffffffffffffffff1681526020013373ffffffffffffffffffffffffffffffffffffffff16815250601360003373ffffffffffffffffffffffffffffffffffffffff1673ffffffffffffffffffffffffffffffffffffffff16815260200190815260200160002060008201518160000160006101000a81548173ffffffffffffffffffffffffffffffffffffffff021916908373ffffffffffffffffffffffffffffffffffffffff16021790555060208201518160010160006101000a81548173ffffffffffffffffffffffffffffffffffffffff021916908373ffffffffffffffffffffffffffffffffffffffff1602179055509050506000611df03483612858565b9050611dfa612d1a565b6000601660003373ffffffffffffffffffffffffffffffffffffffff1673ffffffffffffffffffffffffffffffffffffffff168152602001908152602001600020600101541115611f2857601660003373ffffffffffffffffffffffffffffffffffffffff1673ffffffffffffffffffffffffffffffffffffffff1681526020019081526020016000206040518060e00160405290816000820160009054906101000a900473ffffffffffffffffffffffffffffffffffffffff1673ffffffffffffffffffffffffffffffffffffffff1673ffffffffffffffffffffffffffffffffffffffff16815260200160018201548152602001600282015481526020016003820154815260200160048201548152602001600582015481526020016006820154815250509050611f7a565b6040518060e001604052803373ffffffffffffffffffffffffffffffffffffffff1681526020016000815260200160008152602001600081526020016000815260200160008152602001600081525090505b611f9134826020015161284290919063ffffffff16565b8160200181815250506000611fa583610d83565b90508373ffffffffffffffffffffffffffffffffffffffff163373ffffffffffffffffffffffffffffffffffffffff167f02d7e648dd130fc184d383e55bb126ac4c9c60e8f94bf05acdf557ba2d540b47348460405161200692919061336c565b60405180910390a3612025818360a0015161284290919063ffffffff16565b8260a001818152505081601660003373ffffffffffffffffffffffffffffffffffffffff1673ffffffffffffffffffffffffffffffffffffffff16815260200190815260200160002060008201518160000160006101000a81548173ffffffffffffffffffffffffffffffffffffffff021916908373ffffffffffffffffffffffffffffffffffffffff1602179055506020820151816001015560408201518160020155606082015181600301556080820151816004015560a0820151816005015560c082015181600601559050506120fc612207565b50505050565b60095481565b600080601660008473ffffffffffffffffffffffffffffffffffffffff1673ffffffffffffffffffffffffffffffffffffffff1681526020019081526020016000206040518060e00160405290816000820160009054906101000a900473ffffffffffffffffffffffffffffffffffffffff1673ffffffffffffffffffffffffffffffffffffffff1673ffffffffffffffffffffffffffffffffffffffff168152602001600182015481526020016002820154815260200160038201548152602001600482015481526020016005820154815260200160068201548152505090506121ff8160a001516121fa856114e1565b612842565b915050919050565b600e60009054906101000a900460ff16612256576040517f08c379a000000000000000000000000000000000000000000000000000000000815260040161224d906132e0565b60405180910390fd5b6000601660003373ffffffffffffffffffffffffffffffffffffffff1673ffffffffffffffffffffffffffffffffffffffff1681526020019081526020016000206040518060e00160405290816000820160009054906101000a900473ffffffffffffffffffffffffffffffffffffffff1673ffffffffffffffffffffffffffffffffffffffff1673ffffffffffffffffffffffffffffffffffffffff16815260200160018201548152602001600282015481526020016003820154815260200160048201548152602001600582015481526020016006820154815250509050600061234133612108565b9050600061234e336114e1565b9050600061235e83600754612594565b905061236e846080015182612842565b84608001818152505061238c8360175461284290919063ffffffff16565b6017819055503373ffffffffffffffffffffffffffffffffffffffff167fc003f45bc224d116b6d079100d4ab57a5b9633244c47a5a92a176c5b79a85f2884836040516123da92919061336c565b60405180910390a260008460a0018181525050428460c001818152505083601660003373ffffffffffffffffffffffffffffffffffffffff1673ffffffffffffffffffffffffffffffffffffffff16815260200190815260200160002060008201518160000160006101000a81548173ffffffffffffffffffffffffffffffffffffffff021916908373ffffffffffffffffffffffffffffffffffffffff1602179055506020820151816001015560408201518160020155606082015181600301556080820151816004015560a0820151816005015560c08201518160060155905050600082111561256857601260009054906101000a900473ffffffffffffffffffffffffffffffffffffffff1673ffffffffffffffffffffffffffffffffffffffff1663fa291f6c6125196003548561259490919063ffffffff16565b6040518263ffffffff1660e01b81526004016125359190612e16565b600060405180830381600087803b15801561254f57600080fd5b505af1158015612563573d6000803e3d6000fd5b505050505b50505050565b601060009054906101000a900473ffffffffffffffffffffffffffffffffffffffff1681565b600081836125a29190613606565b905092915050565b600081836125b89190613637565b905092915050565b600081836125ce91906130dc565b905092915050565b60008183106125e557816125e7565b825b905092915050565b6125f761289b565b73ffffffffffffffffffffffffffffffffffffffff166126156116cc565b73ffffffffffffffffffffffffffffffffffffffff161461266b576040517f08c379a0000000000000000000000000000000000000000000000000000000008152600401612662906136dd565b60405180910390fd5b565b6000808061267a846128a3565b91509150601160009054906101000a900473ffffffffffffffffffffffffffffffffffffffff1673ffffffffffffffffffffffffffffffffffffffff166108fc839081150290604051600060405180830381858888f193505050501580156126e6573d6000803e3d6000fd5b50601260009054906101000a900473ffffffffffffffffffffffffffffffffffffffff1673ffffffffffffffffffffffffffffffffffffffff166108fc829081150290604051600060405180830381858888f1935050505015801561274f573d6000803e3d6000fd5b5061277581612767848661284290919063ffffffff16565b61284290919063ffffffff16565b92505050919050565b60008060009054906101000a900473ffffffffffffffffffffffffffffffffffffffff169050816000806101000a81548173ffffffffffffffffffffffffffffffffffffffff021916908373ffffffffffffffffffffffffffffffffffffffff1602179055508173ffffffffffffffffffffffffffffffffffffffff168173ffffffffffffffffffffffffffffffffffffffff167f8be0079c531659141344cd1fd0a4f28419497f9722a3daafe3b4186f6b6457e060405160405180910390a35050565b600081836128509190613086565b905092915050565b60006128756128668461266d565b846125c090919063ffffffff16565b905061289361288484846128c7565b826125c090919063ffffffff16565b905092915050565b600033905090565b6000806128b283600854612cfc565b6128be84600954612cfc565b91509150915091565b6000808290506128d984600c54612cfc565b91506000600190506000805b801580156128f55750600b548311155b15612c6e57601060009054906101000a900473ffffffffffffffffffffffffffffffffffffffff1673ffffffffffffffffffffffffffffffffffffffff168473ffffffffffffffffffffffffffffffffffffffff16149050600061298388600a60018761296291906130dc565b8154811061297357612972613110565b5b9060005260206000200154612cfc565b90506001601560008773ffffffffffffffffffffffffffffffffffffffff1673ffffffffffffffffffffffffffffffffffffffff168152602001908152602001600020600086815260200190815260200160002060008282546129e69190613086565b92505081905550612a5081601460008873ffffffffffffffffffffffffffffffffffffffff1673ffffffffffffffffffffffffffffffffffffffff16815260200190815260200160002060008781526020019081526020016000205461284290919063ffffffff16565b601460008773ffffffffffffffffffffffffffffffffffffffff1673ffffffffffffffffffffffffffffffffffffffff1681526020019081526020016000206000868152602001908152602001600020819055506001601660008773ffffffffffffffffffffffffffffffffffffffff1673ffffffffffffffffffffffffffffffffffffffff1681526020019081526020016000206003016000828254612af79190613086565b92505081905550612b5381601660008873ffffffffffffffffffffffffffffffffffffffff1673ffffffffffffffffffffffffffffffffffffffff1681526020019081526020016000206002015461284290919063ffffffff16565b601660008773ffffffffffffffffffffffffffffffffffffffff1673ffffffffffffffffffffffffffffffffffffffff16815260200190815260200160002060020181905550612bac818461284290919063ffffffff16565b92508473ffffffffffffffffffffffffffffffffffffffff166108fc829081150290604051600060405180830381858888f19350505050158015612bf4573d6000803e3d6000fd5b50601360008673ffffffffffffffffffffffffffffffffffffffff1673ffffffffffffffffffffffffffffffffffffffff16815260200190815260200160002060000160009054906101000a900473ffffffffffffffffffffffffffffffffffffffff1694508380612c65906136fd565b945050506128e5565b60008286612c7c91906130dc565b90506000811115612cf157601260009054906101000a900473ffffffffffffffffffffffffffffffffffffffff1673ffffffffffffffffffffffffffffffffffffffff166108fc829081150290604051600060405180830381858888f19350505050158015612cef573d6000803e3d6000fd5b505b505050505092915050565b6000612d12612d0b84846125aa565b6064612594565b905092915050565b6040518060e00160405280600073ffffffffffffffffffffffffffffffffffffffff1681526020016000815260200160008152602001600081526020016000815260200160008152602001600081525090565b600080fd5b600073ffffffffffffffffffffffffffffffffffffffff82169050919050565b6000612d9d82612d72565b9050919050565b612dad81612d92565b8114612db857600080fd5b50565b600081359050612dca81612da4565b92915050565b600060208284031215612de657612de5612d6d565b5b6000612df484828501612dbb565b91505092915050565b6000819050919050565b612e1081612dfd565b82525050565b6000602082019050612e2b6000830184612e07565b92915050565b60008115159050919050565b612e4681612e31565b82525050565b6000602082019050612e616000830184612e3d565b92915050565b612e7081612dfd565b8114612e7b57600080fd5b50565b600081359050612e8d81612e67565b92915050565b600060208284031215612ea957612ea8612d6d565b5b6000612eb784828501612e7e565b91505092915050565b6000612ecb82612d72565b9050919050565b612edb81612ec0565b82525050565b6000602082019050612ef66000830184612ed2565b92915050565b6000604082019050612f116000830185612ed2565b612f1e6020830184612ed2565b9392505050565b612f2e81612d92565b82525050565b6000602082019050612f496000830184612f25565b92915050565b600060e082019050612f64600083018a612f25565b612f716020830189612e07565b612f7e6040830188612e07565b612f8b6060830187612e07565b612f986080830186612e07565b612fa560a0830185612e07565b612fb260c0830184612e07565b98975050505050505050565b60008060408385031215612fd557612fd4612d6d565b5b6000612fe385828601612dbb565b9250506020612ff485828601612e7e565b9150509250929050565b61300781612ec0565b811461301257600080fd5b50565b60008135905061302481612ffe565b92915050565b6000602082840312156130405761303f612d6d565b5b600061304e84828501613015565b91505092915050565b7f4e487b7100000000000000000000000000000000000000000000000000000000600052601160045260246000fd5b600061309182612dfd565b915061309c83612dfd565b9250827fffffffffffffffffffffffffffffffffffffffffffffffffffffffffffffffff038211156130d1576130d0613057565b5b828201905092915050565b60006130e782612dfd565b91506130f283612dfd565b92508282101561310557613104613057565b5b828203905092915050565b7f4e487b7100000000000000000000000000000000000000000000000000000000600052603260045260246000fd5b600082825260208201905092915050565b7f4e45454420534f4d452045544800000000000000000000000000000000000000600082015250565b6000613186600d8361313f565b915061319182613150565b602082019050919050565b600060208201905081810360008301526131b581613179565b9050919050565b7f4d41524b4554204953204e4f5420454d50545900000000000000000000000000600082015250565b60006131f260138361313f565b91506131fd826131bc565b602082019050919050565b60006020820190508181036000830152613221816131e5565b9050919050565b7f5641554c542041444452455353204e4f54205345540000000000000000000000600082015250565b600061325e60158361313f565b915061326982613228565b602082019050919050565b6000602082019050818103600083015261328d81613251565b9050919050565b7f4e4f5420494e495449414c495a45440000000000000000000000000000000000600082015250565b60006132ca600f8361313f565b91506132d582613294565b602082019050919050565b600060208201905081810360008301526132f9816132bd565b9050919050565b7f4e4f5420454e4f5547482042414c414e43450000000000000000000000000000600082015250565b600061333660128361313f565b915061334182613300565b602082019050919050565b6000602082019050818103600083015261336581613329565b9050919050565b60006040820190506133816000830185612e07565b61338e6020830184612e07565b9392505050565b7f5a45524f20414444524553530000000000000000000000000000000000000000600082015250565b60006133cb600c8361313f565b91506133d682613395565b602082019050919050565b600060208201905081810360008301526133fa816133be565b9050919050565b7f4f776e61626c653a206e6577206f776e657220697320746865207a65726f206160008201527f6464726573730000000000000000000000000000000000000000000000000000602082015250565b600061345d60268361313f565b915061346882613401565b604082019050919050565b6000602082019050818103600083015261348c81613450565b9050919050565b7f4445504f534954204d494e494d554d2056414c55450000000000000000000000600082015250565b60006134c960158361313f565b91506134d482613493565b602082019050919050565b600060208201905081810360008301526134f8816134bc565b9050919050565b7f4445504f5349542056414c55452045584345454453204d415800000000000000600082015250565b600061353560198361313f565b9150613540826134ff565b602082019050919050565b6000602082019050818103600083015261356481613528565b9050919050565b7f494e5649544552204d5553542045584953540000000000000000000000000000600082015250565b60006135a160128361313f565b91506135ac8261356b565b602082019050919050565b600060208201905081810360008301526135d081613594565b9050919050565b7f4e487b7100000000000000000000000000000000000000000000000000000000600052601260045260246000fd5b600061361182612dfd565b915061361c83612dfd565b92508261362c5761362b6135d7565b5b828204905092915050565b600061364282612dfd565b915061364d83612dfd565b9250817fffffffffffffffffffffffffffffffffffffffffffffffffffffffffffffffff048311821515161561368657613685613057565b5b828202905092915050565b7f4f776e61626c653a2063616c6c6572206973206e6f7420746865206f776e6572600082015250565b60006136c760208361313f565b91506136d282613691565b602082019050919050565b600060208201905081810360008301526136f6816136ba565b9050919050565b600061370882612dfd565b91507fffffffffffffffffffffffffffffffffffffffffffffffffffffffffffffffff82141561373b5761373a613057565b5b60018201905091905056fea2646970667358221220539891a7327b909320f7e69809c17a50aa8f74681c1f9c73bf69c6e046f26b2e64736f6c634300080c0033",
  "linkReferences": {},
  "deployedLinkReferences": {}
}