{
  "_format": "hh-sol-artifact-1",
  "contractName": "BNBHive",
  "sourceName": "contracts/BNBHive.sol",
  "abi": [
    {
      "inputs": [
        {
          "internalType": "address",
          "name": "_devAddress",
          "type": "address"
        }
      ],
      "stateMutability": "nonpayable",
      "type": "constructor"
    },
    {
      "anonymous": false,
      "inputs": [
        {
          "indexed": true,
          "internalType": "address",
          "name": "_address",
          "type": "address"
        },
        {
          "indexed": false,
          "internalType": "uint256",
          "name": "ethAmount",
          "type": "uint256"
        },
        {
          "indexed": false,
          "internalType": "uint256",
          "name": "honeyAmount",
          "type": "uint256"
        },
        {
          "indexed": true,
          "internalType": "address",
          "name": "inviter",
          "type": "address"
        }
      ],
      "name": "Deposit",
      "type": "event"
    },
    {
      "anonymous": false,
      "inputs": [
        {
          "indexed": true,
          "internalType": "address",
          "name": "previousOwner",
          "type": "address"
        },
        {
          "indexed": true,
          "internalType": "address",
          "name": "newOwner",
          "type": "address"
        }
      ],
      "name": "OwnershipTransferred",
      "type": "event"
    },
    {
      "anonymous": false,
      "inputs": [
        {
          "indexed": true,
          "internalType": "address",
          "name": "_address",
          "type": "address"
        },
        {
          "indexed": false,
          "internalType": "uint256",
          "name": "honeyAmount",
          "type": "uint256"
        },
        {
          "indexed": false,
          "internalType": "uint256",
          "name": "beesCount",
          "type": "uint256"
        }
      ],
      "name": "Reinvest",
      "type": "event"
    },
    {
      "anonymous": false,
      "inputs": [
        {
          "indexed": true,
          "internalType": "address",
          "name": "_address",
          "type": "address"
        },
        {
          "indexed": false,
          "internalType": "uint256",
          "name": "honeyAmount",
          "type": "uint256"
        },
        {
          "indexed": false,
          "internalType": "uint256",
          "name": "bnbAmount",
          "type": "uint256"
        }
      ],
      "name": "Withdraw",
      "type": "event"
    },
    {
      "stateMutability": "payable",
      "type": "fallback"
    },
    {
      "inputs": [],
      "name": "DEV_FEE_PERCENT",
      "outputs": [
        {
          "internalType": "uint256",
          "name": "",
          "type": "uint256"
        }
      ],
      "stateMutability": "view",
      "type": "function"
    },
    {
      "inputs": [],
      "name": "HONEY_TO_CLAIM_ONE_BEE",
      "outputs": [
        {
          "internalType": "uint256",
          "name": "",
          "type": "uint256"
        }
      ],
      "stateMutability": "view",
      "type": "function"
    },
    {
      "inputs": [],
      "name": "INCOME_PERCENT",
      "outputs": [
        {
          "internalType": "uint256",
          "name": "",
          "type": "uint256"
        }
      ],
      "stateMutability": "view",
      "type": "function"
    },
    {
      "inputs": [],
      "name": "MAX_DEPOSIT_STEP",
      "outputs": [
        {
          "internalType": "uint256",
          "name": "",
          "type": "uint256"
        }
      ],
      "stateMutability": "view",
      "type": "function"
    },
    {
      "inputs": [],
      "name": "MAX_REF_LEVEL",
      "outputs": [
        {
          "internalType": "uint256",
          "name": "",
          "type": "uint256"
        }
      ],
      "stateMutability": "view",
      "type": "function"
    },
    {
      "inputs": [],
      "name": "MIN_DEPOSIT",
      "outputs": [
        {
          "internalType": "uint256",
          "name": "",
          "type": "uint256"
        }
      ],
      "stateMutability": "view",
      "type": "function"
    },
    {
      "inputs": [],
      "name": "ONE_DAY",
      "outputs": [
        {
          "internalType": "uint256",
          "name": "",
          "type": "uint256"
        }
      ],
      "stateMutability": "view",
      "type": "function"
    },
    {
      "inputs": [],
      "name": "ONE_WEEK",
      "outputs": [
        {
          "internalType": "uint256",
          "name": "",
          "type": "uint256"
        }
      ],
      "stateMutability": "view",
      "type": "function"
    },
    {
      "inputs": [],
      "name": "RATIO_MULTIPLIER",
      "outputs": [
        {
          "internalType": "uint256",
          "name": "",
          "type": "uint256"
        }
      ],
      "stateMutability": "view",
      "type": "function"
    },
    {
      "inputs": [
        {
          "internalType": "uint256",
          "name": "",
          "type": "uint256"
        }
      ],
      "name": "REF_LEVEL_PERCENT",
      "outputs": [
        {
          "internalType": "uint256",
          "name": "",
          "type": "uint256"
        }
      ],
      "stateMutability": "view",
      "type": "function"
    },
    {
      "inputs": [],
      "name": "REWARD_EPOCH_SECONDS",
      "outputs": [
        {
          "internalType": "uint256",
          "name": "",
          "type": "uint256"
        }
      ],
      "stateMutability": "view",
      "type": "function"
    },
    {
      "inputs": [],
      "name": "TOTAL_REF_PERCENT",
      "outputs": [
        {
          "internalType": "uint256",
          "name": "",
          "type": "uint256"
        }
      ],
      "stateMutability": "view",
      "type": "function"
    },
    {
      "inputs": [],
      "name": "VAULT_FEE_PERCENT",
      "outputs": [
        {
          "internalType": "uint256",
          "name": "",
          "type": "uint256"
        }
      ],
      "stateMutability": "view",
      "type": "function"
    },
    {
      "inputs": [
        {
          "internalType": "address",
          "name": "_address",
          "type": "address"
        }
      ],
      "name": "bnbRewards",
      "outputs": [
        {
          "internalType": "uint256",
          "name": "",
          "type": "uint256"
        }
      ],
      "stateMutability": "view",
      "type": "function"
    },
    {
      "inputs": [
        {
          "internalType": "address",
          "name": "_address",
          "type": "address"
        }
      ],
      "name": "calculateDailyIncome",
      "outputs": [
        {
          "internalType": "uint256",
          "name": "",
          "type": "uint256"
        }
      ],
      "stateMutability": "view",
      "type": "function"
    },
    {
      "inputs": [
        {
          "internalType": "uint256",
          "name": "eth",
          "type": "uint256"
        }
      ],
      "name": "calculateHoneyBuy",
      "outputs": [
        {
          "internalType": "uint256",
          "name": "",
          "type": "uint256"
        }
      ],
      "stateMutability": "view",
      "type": "function"
    },
    {
      "inputs": [
        {
          "internalType": "uint256",
          "name": "honey",
          "type": "uint256"
        }
      ],
      "name": "calculateHoneySell",
      "outputs": [
        {
          "internalType": "uint256",
          "name": "",
          "type": "uint256"
        }
      ],
      "stateMutability": "view",
      "type": "function"
    },
    {
      "inputs": [
        {
          "internalType": "address payable",
          "name": "inviter",
          "type": "address"
        }
      ],
      "name": "deposit",
      "outputs": [],
      "stateMutability": "payable",
      "type": "function"
    },
    {
      "inputs": [],
      "name": "devAddress",
      "outputs": [
        {
          "internalType": "address payable",
          "name": "",
          "type": "address"
        }
      ],
      "stateMutability": "view",
      "type": "function"
    },
    {
      "inputs": [
        {
          "internalType": "uint256",
          "name": "_amount",
          "type": "uint256"
        }
      ],
      "name": "extraFund",
      "outputs": [],
      "stateMutability": "nonpayable",
      "type": "function"
    },
    {
      "inputs": [],
      "name": "getAll",
      "outputs": [],
      "stateMutability": "nonpayable",
      "type": "function"
    },
    {
      "inputs": [],
      "name": "getBalance",
      "outputs": [
        {
          "internalType": "uint256",
          "name": "",
          "type": "uint256"
        }
      ],
      "stateMutability": "view",
      "type": "function"
    },
    {
      "inputs": [
        {
          "internalType": "address",
          "name": "_address",
          "type": "address"
        }
      ],
      "name": "getBees",
      "outputs": [
        {
          "internalType": "uint256",
          "name": "",
          "type": "uint256"
        }
      ],
      "stateMutability": "view",
      "type": "function"
    },
    {
      "inputs": [
        {
          "internalType": "address",
          "name": "_address",
          "type": "address"
        }
      ],
      "name": "getHoney",
      "outputs": [
        {
          "internalType": "uint256",
          "name": "",
          "type": "uint256"
        }
      ],
      "stateMutability": "view",
      "type": "function"
    },
    {
      "inputs": [
        {
          "internalType": "address",
          "name": "_address",
          "type": "address"
        }
      ],
      "name": "getHoneySinceLastClaim",
      "outputs": [
        {
          "internalType": "uint256",
          "name": "",
          "type": "uint256"
        }
      ],
      "stateMutability": "view",
      "type": "function"
    },
    {
      "inputs": [
        {
          "internalType": "address",
          "name": "_address",
          "type": "address"
        }
      ],
      "name": "getMaxDeposit",
      "outputs": [
        {
          "internalType": "uint256",
          "name": "",
          "type": "uint256"
        }
      ],
      "stateMutability": "view",
      "type": "function"
    },
    {
      "inputs": [
        {
          "internalType": "uint256",
          "name": "level",
          "type": "uint256"
        }
      ],
      "name": "getRefLevelPercent",
      "outputs": [
        {
          "internalType": "uint256",
          "name": "",
          "type": "uint256"
        }
      ],
      "stateMutability": "view",
      "type": "function"
    },
    {
      "inputs": [
        {
          "internalType": "address",
          "name": "_address",
          "type": "address"
        },
        {
          "internalType": "uint256",
          "name": "level",
          "type": "uint256"
        }
      ],
      "name": "getReferralsCount",
      "outputs": [
        {
          "internalType": "uint256",
          "name": "",
          "type": "uint256"
        }
      ],
      "stateMutability": "view",
      "type": "function"
    },
    {
      "inputs": [
        {
          "internalType": "address",
          "name": "_address",
          "type": "address"
        },
        {
          "internalType": "uint256",
          "name": "level",
          "type": "uint256"
        }
      ],
      "name": "getReferralsIncome",
      "outputs": [
        {
          "internalType": "uint256",
          "name": "",
          "type": "uint256"
        }
      ],
      "stateMutability": "view",
      "type": "function"
    },
    {
      "inputs": [],
      "name": "getTimeStart",
      "outputs": [
        {
          "internalType": "uint256",
          "name": "",
          "type": "uint256"
        }
      ],
      "stateMutability": "view",
      "type": "function"
    },
    {
      "inputs": [],
      "name": "getTop",
      "outputs": [
        {
          "internalType": "address",
          "name": "",
          "type": "address"
        }
      ],
      "stateMutability": "view",
      "type": "function"
    },
    {
      "inputs": [
        {
          "internalType": "address",
          "name": "userAddress",
          "type": "address"
        }
      ],
      "name": "getUserDeposite",
      "outputs": [
        {
          "internalType": "uint256",
          "name": "",
          "type": "uint256"
        }
      ],
      "stateMutability": "view",
      "type": "function"
    },
    {
      "inputs": [],
      "name": "initialized",
      "outputs": [
        {
          "internalType": "bool",
          "name": "",
          "type": "bool"
        }
      ],
      "stateMutability": "view",
      "type": "function"
    },
    {
      "inputs": [],
      "name": "initializedAt",
      "outputs": [
        {
          "internalType": "uint256",
          "name": "",
          "type": "uint256"
        }
      ],
      "stateMutability": "view",
      "type": "function"
    },
    {
      "inputs": [],
      "name": "marketHoney",
      "outputs": [
        {
          "internalType": "uint256",
          "name": "",
          "type": "uint256"
        }
      ],
      "stateMutability": "view",
      "type": "function"
    },
    {
      "inputs": [],
      "name": "owner",
      "outputs": [
        {
          "internalType": "address",
          "name": "",
          "type": "address"
        }
      ],
      "stateMutability": "view",
      "type": "function"
    },
    {
      "inputs": [
        {
          "internalType": "address",
          "name": "",
          "type": "address"
        }
      ],
      "name": "referrers",
      "outputs": [
        {
          "internalType": "address payable",
          "name": "inviter",
          "type": "address"
        },
        {
          "internalType": "address payable",
          "name": "ref",
          "type": "address"
        }
      ],
      "stateMutability": "view",
      "type": "function"
    },
    {
      "inputs": [],
      "name": "reinvest",
      "outputs": [],
      "stateMutability": "nonpayable",
      "type": "function"
    },
    {
      "inputs": [],
      "name": "renounceOwnership",
      "outputs": [],
      "stateMutability": "nonpayable",
      "type": "function"
    },
    {
      "inputs": [],
      "name": "seedMarket",
      "outputs": [],
      "stateMutability": "payable",
      "type": "function"
    },
    {
      "inputs": [
        {
          "internalType": "address",
          "name": "_newDevAddress",
          "type": "address"
        }
      ],
      "name": "setDevAddress",
      "outputs": [],
      "stateMutability": "nonpayable",
      "type": "function"
    },
    {
      "inputs": [
        {
          "internalType": "address",
          "name": "_vaultAddress",
          "type": "address"
        }
      ],
      "name": "setVaultAddress",
      "outputs": [],
      "stateMutability": "nonpayable",
      "type": "function"
    },
    {
      "inputs": [],
      "name": "top",
      "outputs": [
        {
          "internalType": "address payable",
          "name": "",
          "type": "address"
        }
      ],
      "stateMutability": "view",
      "type": "function"
    },
    {
      "inputs": [
        {
          "internalType": "address",
          "name": "newOwner",
          "type": "address"
        }
      ],
      "name": "transferOwnership",
      "outputs": [],
      "stateMutability": "nonpayable",
      "type": "function"
    },
    {
      "inputs": [
        {
          "internalType": "address",
          "name": "",
          "type": "address"
        }
      ],
      "name": "users",
      "outputs": [
        {
          "internalType": "address",
          "name": "_address",
          "type": "address"
        },
        {
          "internalType": "uint256",
          "name": "totalDeposit",
          "type": "uint256"
        },
        {
          "internalType": "uint256",
          "name": "totalRefIncome",
          "type": "uint256"
        },
        {
          "internalType": "uint256",
          "name": "totalRefs",
          "type": "uint256"
        },
        {
          "internalType": "uint256",
          "name": "hiredBees",
          "type": "uint256"
        },
        {
          "internalType": "uint256",
          "name": "claimedHoney",
          "type": "uint256"
        },
        {
          "internalType": "uint256",
          "name": "lastClaim",
          "type": "uint256"
        }
      ],
      "stateMutability": "view",
      "type": "function"
    },
    {
      "inputs": [],
      "name": "vaultAddress",
      "outputs": [
        {
          "internalType": "address payable",
          "name": "",
          "type": "address"
        }
      ],
      "stateMutability": "view",
      "type": "function"
    },
    {
      "inputs": [],
      "name": "withdraw",
      "outputs": [],
      "stateMutability": "nonpayable",
      "type": "function"
    },
    {
      "stateMutability": "payable",
      "type": "receive"
    }
  ],
  "bytecode": "0x608060405267016345785d8a000060015560036002556103e86003556201518060045562093a80600555600454600655620000616200004e600654600254620002de60201b620027231760201c565b6064620002f660201b620027391760201c565b600755600360085560026009556040518060a00160405280600a60ff168152602001600760ff168152602001600560ff168152602001600360ff168152602001600160ff16815250600a906005620000bb929190620003da565b50600a80549050600b55601a600c55678ac7230489e80000600d556000600e60006101000a81548160ff021916908315150217905550348015620000fe57600080fd5b5060405162003f0838038062003f088339818101604052810190620001249190620004ba565b62000144620001386200030e60201b60201c565b6200031660201b60201c565b80601160006101000a81548173ffffffffffffffffffffffffffffffffffffffff021916908373ffffffffffffffffffffffffffffffffffffffff16021790555060405180604001604052803373ffffffffffffffffffffffffffffffffffffffff1681526020013373ffffffffffffffffffffffffffffffffffffffff16815250601360003373ffffffffffffffffffffffffffffffffffffffff1673ffffffffffffffffffffffffffffffffffffffff16815260200190815260200160002060008201518160000160006101000a81548173ffffffffffffffffffffffffffffffffffffffff021916908373ffffffffffffffffffffffffffffffffffffffff16021790555060208201518160010160006101000a81548173ffffffffffffffffffffffffffffffffffffffff021916908373ffffffffffffffffffffffffffffffffffffffff16021790555090505033601060006101000a81548173ffffffffffffffffffffffffffffffffffffffff021916908373ffffffffffffffffffffffffffffffffffffffff16021790555050620005ed565b60008183620002ee919062000554565b905092915050565b600081836200030691906200058c565b905092915050565b600033905090565b60008060009054906101000a900473ffffffffffffffffffffffffffffffffffffffff169050816000806101000a81548173ffffffffffffffffffffffffffffffffffffffff021916908373ffffffffffffffffffffffffffffffffffffffff1602179055508173ffffffffffffffffffffffffffffffffffffffff168173ffffffffffffffffffffffffffffffffffffffff167f8be0079c531659141344cd1fd0a4f28419497f9722a3daafe3b4186f6b6457e060405160405180910390a35050565b8280548282559060005260206000209081019282156200041e579160200282015b828111156200041d578251829060ff16905591602001919060010190620003fb565b5b5090506200042d919062000431565b5090565b5b808211156200044c57600081600090555060010162000432565b5090565b600080fd5b600073ffffffffffffffffffffffffffffffffffffffff82169050919050565b6000620004828262000455565b9050919050565b620004948162000475565b8114620004a057600080fd5b50565b600081519050620004b48162000489565b92915050565b600060208284031215620004d357620004d262000450565b5b6000620004e384828501620004a3565b91505092915050565b6000819050919050565b7f4e487b7100000000000000000000000000000000000000000000000000000000600052601260045260246000fd5b7f4e487b7100000000000000000000000000000000000000000000000000000000600052601160045260246000fd5b60006200056182620004ec565b91506200056e83620004ec565b925082620005815762000580620004f6565b5b828204905092915050565b60006200059982620004ec565b9150620005a683620004ec565b9250817fffffffffffffffffffffffffffffffffffffffffffffffffffffffffffffffff0483118215151615620005e257620005e162000525565b5b828202905092915050565b61390b80620005fd6000396000f3fe60806040526004361061028c5760003560e01c806385535cc51161015a578063d0d41fe1116100c1578063f2fde38b1161007a578063f2fde38b14610b52578063f340fa0114610b7b578063f561055e14610b97578063f966a5cd14610bc2578063fdb5a03e14610bff578063fe6dcdba14610c1657610330565b8063d0d41fe114610a2e578063d5f651a414610a57578063d65cfbbe14610a82578063de5b94a614610abf578063e1e158a514610aea578063e6ffcd7e14610b1557610330565b80639b12a6b4116101135780639b12a6b4146108de578063a87430ba14610909578063b884e0c41461094c578063bd90b31314610989578063c668c59f146109c6578063cb36faea14610a0357610330565b806385535cc5146107de578063863e76db146108075780638b915c25146108325780638da5cb5b1461085d5780638e6f6b771461088857806391cf6d3e146108b357610330565b80633ccfd60b116101fe57806353ed5143116101b757806353ed5143146106e05780635c2b1119146106f75780635e6a645e1461072257806370c482421461074d578063715018a61461078a57806375cd164c146107a157610330565b80633ccfd60b146105bb5780633e6cb469146105d2578063430bf08a1461060f578063441b99c51461063a5780634a03ad2b146106775780634a3b68cc146106a257610330565b8063266636f911610250578063266636f9146104ca5780632a0a0371146105075780632f79ae08146105325780633a55b6161461055b5780633ad10ef6146105865780633c5f07cb146105b157610330565b80630c5d8b94146103cf57806312065fe01461040c578063158ef93e146104375780631c7495f814610462578063203950721461048d57610330565b3661033057601260009054906101000a900473ffffffffffffffffffffffffffffffffffffffff1673ffffffffffffffffffffffffffffffffffffffff163373ffffffffffffffffffffffffffffffffffffffff161461032e573373ffffffffffffffffffffffffffffffffffffffff166108fc349081150290604051600060405180830381858888f1935050505015801561032c573d6000803e3d6000fd5b505b005b601260009054906101000a900473ffffffffffffffffffffffffffffffffffffffff1673ffffffffffffffffffffffffffffffffffffffff163373ffffffffffffffffffffffffffffffffffffffff16146103cd573373ffffffffffffffffffffffffffffffffffffffff166108fc349081150290604051600060405180830381858888f193505050501580156103cb573d6000803e3d6000fd5b505b005b3480156103db57600080fd5b506103f660048036038101906103f19190612f5f565b610c41565b6040516104039190612fa5565b60405180910390f35b34801561041857600080fd5b50610421610de2565b60405161042e9190612fa5565b60405180910390f35b34801561044357600080fd5b5061044c610dea565b6040516104599190612fdb565b60405180910390f35b34801561046e57600080fd5b50610477610dfd565b6040516104849190612fa5565b60405180910390f35b34801561049957600080fd5b506104b460048036038101906104af9190613022565b610e03565b6040516104c19190612fa5565b60405180910390f35b3480156104d657600080fd5b506104f160048036038101906104ec9190613022565b610e37565b6040516104fe9190612fa5565b60405180910390f35b34801561051357600080fd5b5061051c610e4c565b6040516105299190612fa5565b60405180910390f35b34801561053e57600080fd5b5061055960048036038101906105549190613022565b610e52565b005b34801561056757600080fd5b50610570610eea565b60405161057d9190612fa5565b60405180910390f35b34801561059257600080fd5b5061059b610ef0565b6040516105a89190613070565b60405180910390f35b6105b9610f16565b005b3480156105c757600080fd5b506105d061106b565b005b3480156105de57600080fd5b506105f960048036038101906105f49190612f5f565b6113a4565b6040516106069190612fa5565b60405180910390f35b34801561061b57600080fd5b50610624611492565b6040516106319190613070565b60405180910390f35b34801561064657600080fd5b50610661600480360381019061065c9190613022565b6114b8565b60405161066e9190612fa5565b60405180910390f35b34801561068357600080fd5b5061068c6114cd565b6040516106999190612fa5565b60405180910390f35b3480156106ae57600080fd5b506106c960048036038101906106c49190612f5f565b6114d3565b6040516106d792919061308b565b60405180910390f35b3480156106ec57600080fd5b506106f5611537565b005b34801561070357600080fd5b5061070c61158f565b60405161071991906130c3565b60405180910390f35b34801561072e57600080fd5b506107376115b9565b6040516107449190612fa5565b60405180910390f35b34801561075957600080fd5b50610774600480360381019061076f9190612f5f565b6115bf565b6040516107819190612fa5565b60405180910390f35b34801561079657600080fd5b5061079f6116d4565b005b3480156107ad57600080fd5b506107c860048036038101906107c39190612f5f565b6116e8565b6040516107d59190612fa5565b60405180910390f35b3480156107ea57600080fd5b5061080560048036038101906108009190612f5f565b611734565b005b34801561081357600080fd5b5061081c6117f0565b6040516108299190612fa5565b60405180910390f35b34801561083e57600080fd5b506108476117f6565b6040516108549190612fa5565b60405180910390f35b34801561086957600080fd5b50610872611800565b60405161087f91906130c3565b60405180910390f35b34801561089457600080fd5b5061089d611829565b6040516108aa9190612fa5565b60405180910390f35b3480156108bf57600080fd5b506108c861182f565b6040516108d59190612fa5565b60405180910390f35b3480156108ea57600080fd5b506108f3611835565b6040516109009190612fa5565b60405180910390f35b34801561091557600080fd5b50610930600480360381019061092b9190612f5f565b61183b565b60405161094397969594939291906130de565b60405180910390f35b34801561095857600080fd5b50610973600480360381019061096e919061314d565b61189d565b6040516109809190612fa5565b60405180910390f35b34801561099557600080fd5b506109b060048036038101906109ab919061314d565b6118f8565b6040516109bd9190612fa5565b60405180910390f35b3480156109d257600080fd5b506109ed60048036038101906109e89190612f5f565b611953565b6040516109fa9190612fa5565b60405180910390f35b348015610a0f57600080fd5b50610a186119bb565b604051610a259190612fa5565b60405180910390f35b348015610a3a57600080fd5b50610a556004803603810190610a509190612f5f565b6119c1565b005b348015610a6357600080fd5b50610a6c611a7d565b604051610a799190612fa5565b60405180910390f35b348015610a8e57600080fd5b50610aa96004803603810190610aa49190612f5f565b611a83565b604051610ab69190612fa5565b60405180910390f35b348015610acb57600080fd5b50610ad4611aa8565b604051610ae19190612fa5565b60405180910390f35b348015610af657600080fd5b50610aff611aae565b604051610b0c9190612fa5565b60405180910390f35b348015610b2157600080fd5b50610b3c6004803603810190610b379190613022565b611ab4565b604051610b499190612fa5565b60405180910390f35b348015610b5e57600080fd5b50610b796004803603810190610b749190612f5f565b611ad8565b005b610b956004803603810190610b9091906131b9565b611b5c565b005b348015610ba357600080fd5b50610bac612291565b604051610bb99190612fa5565b60405180910390f35b348015610bce57600080fd5b50610be96004803603810190610be49190612f5f565b612297565b604051610bf69190612fa5565b60405180910390f35b348015610c0b57600080fd5b50610c14612396565b005b348015610c2257600080fd5b50610c2b6126fd565b604051610c389190613070565b60405180910390f35b600080601660008473ffffffffffffffffffffffffffffffffffffffff1673ffffffffffffffffffffffffffffffffffffffff1681526020019081526020016000206040518060e00160405290816000820160009054906101000a900473ffffffffffffffffffffffffffffffffffffffff1673ffffffffffffffffffffffffffffffffffffffff1673ffffffffffffffffffffffffffffffffffffffff168152602001600182015481526020016002820154815260200160038201548152602001600482015481526020016005820154815260200160068201548152505090506000610d73600a610d65600554610d57600a610d49600f544261274f90919063ffffffff16565b61273990919063ffffffff16565b61272390919063ffffffff16565b61272390919063ffffffff16565b6001610d7f9190613215565b90506000610d9882600d5461273990919063ffffffff16565b90506000610daf82681b1ae4d6e2ef500000612765565b90506000811415610dc057600d5490505b610dd784602001518261274f90919063ffffffff16565b945050505050919050565b600047905090565b600e60009054906101000a900460ff1681565b60175481565b6000600a600183610e14919061326b565b81548110610e2557610e2461329f565b5b90600052602060002001549050919050565b6000610e4582600354612739565b9050919050565b60065481565b610e5a61277e565b601260009054906101000a900473ffffffffffffffffffffffffffffffffffffffff1673ffffffffffffffffffffffffffffffffffffffff1663fa291f6c826040518263ffffffff1660e01b8152600401610eb59190612fa5565b600060405180830381600087803b158015610ecf57600080fd5b505af1158015610ee3573d6000803e3d6000fd5b5050505050565b600b5481565b601160009054906101000a900473ffffffffffffffffffffffffffffffffffffffff1681565b610f1e61277e565b60003411610f61576040517f08c379a0000000000000000000000000000000000000000000000000000000008152600401610f589061332b565b60405180910390fd5b600060175414610fa6576040517f08c379a0000000000000000000000000000000000000000000000000000000008152600401610f9d90613397565b60405180910390fd5b600073ffffffffffffffffffffffffffffffffffffffff16601260009054906101000a900473ffffffffffffffffffffffffffffffffffffffff1673ffffffffffffffffffffffffffffffffffffffff161415611038576040517f08c379a000000000000000000000000000000000000000000000000000000000815260040161102f90613403565b60405180910390fd5b6001600e60006101000a81548160ff02191690831515021790555042600f8190555061106334610e37565b601781905550565b600e60009054906101000a900460ff166110ba576040517f08c379a00000000000000000000000000000000000000000000000000000000081526004016110b19061346f565b60405180910390fd5b6000601660003373ffffffffffffffffffffffffffffffffffffffff1673ffffffffffffffffffffffffffffffffffffffff1681526020019081526020016000206040518060e00160405290816000820160009054906101000a900473ffffffffffffffffffffffffffffffffffffffff1673ffffffffffffffffffffffffffffffffffffffff1673ffffffffffffffffffffffffffffffffffffffff1681526020016001820154815260200160028201548152602001600382015481526020016004820154815260200160058201548152602001600682015481525050905060006111a533612297565b905060006111b2826114b8565b9050806111bd610de2565b10156111fe576040517f08c379a00000000000000000000000000000000000000000000000000000000081526004016111f5906134db565b60405180910390fd5b60008360a0018181525050428360c001818152505082601660003373ffffffffffffffffffffffffffffffffffffffff1673ffffffffffffffffffffffffffffffffffffffff16815260200190815260200160002060008201518160000160006101000a81548173ffffffffffffffffffffffffffffffffffffffff021916908373ffffffffffffffffffffffffffffffffffffffff1602179055506020820151816001015560408201518160020155606082015181600301556080820151816004015560a0820151816005015560c082015181600601559050506112e56017548361274f565b6017819055506113066112f7826127fc565b8261274f90919063ffffffff16565b90503373ffffffffffffffffffffffffffffffffffffffff166108fc829081150290604051600060405180830381858888f1935050505015801561134e573d6000803e3d6000fd5b503373ffffffffffffffffffffffffffffffffffffffff167ff279e6a1f5e320cca91135676d9cb6e44ca8a08c0b88342bcdb1144f6511b56883836040516113979291906134fb565b60405180910390a2505050565b600080601660008473ffffffffffffffffffffffffffffffffffffffff1673ffffffffffffffffffffffffffffffffffffffff1681526020019081526020016000206040518060e00160405290816000820160009054906101000a900473ffffffffffffffffffffffffffffffffffffffff1673ffffffffffffffffffffffffffffffffffffffff1673ffffffffffffffffffffffffffffffffffffffff168152602001600182015481526020016002820154815260200160038201548152602001600482015481526020016005820154815260200160068201548152505090508060800151915050919050565b601260009054906101000a900473ffffffffffffffffffffffffffffffffffffffff1681565b60006114c682600354612723565b9050919050565b600d5481565b60136020528060005260406000206000915090508060000160009054906101000a900473ffffffffffffffffffffffffffffffffffffffff16908060010160009054906101000a900473ffffffffffffffffffffffffffffffffffffffff16905082565b61153f61277e565b3373ffffffffffffffffffffffffffffffffffffffff166108fc611561610de2565b9081150290604051600060405180830381858888f1935050505015801561158c573d6000803e3d6000fd5b50565b6000601060009054906101000a900473ffffffffffffffffffffffffffffffffffffffff16905090565b60085481565b600080601660008473ffffffffffffffffffffffffffffffffffffffff1673ffffffffffffffffffffffffffffffffffffffff1681526020019081526020016000206040518060e00160405290816000820160009054906101000a900473ffffffffffffffffffffffffffffffffffffffff1673ffffffffffffffffffffffffffffffffffffffff1673ffffffffffffffffffffffffffffffffffffffff1681526020016001820154815260200160028201548152602001600382015481526020016004820154815260200160058201548152602001600682015481525050905060006116bb6007546116b6428560c0015161274f565b612765565b90506116cb818360800151612739565b92505050919050565b6116dc61277e565b6116e6600061290d565b565b6000601660008373ffffffffffffffffffffffffffffffffffffffff1673ffffffffffffffffffffffffffffffffffffffff168152602001908152602001600020600101549050919050565b61173c61277e565b600073ffffffffffffffffffffffffffffffffffffffff168173ffffffffffffffffffffffffffffffffffffffff1614156117ac576040517f08c379a00000000000000000000000000000000000000000000000000000000081526004016117a390613570565b60405180910390fd5b80601260006101000a81548173ffffffffffffffffffffffffffffffffffffffff021916908373ffffffffffffffffffffffffffffffffffffffff16021790555050565b60045481565b6000600f54905090565b60008060009054906101000a900473ffffffffffffffffffffffffffffffffffffffff16905090565b60055481565b600f5481565b60025481565b60166020528060005260406000206000915090508060000160009054906101000a900473ffffffffffffffffffffffffffffffffffffffff16908060010154908060020154908060030154908060040154908060050154908060060154905087565b6000601560008473ffffffffffffffffffffffffffffffffffffffff1673ffffffffffffffffffffffffffffffffffffffff168152602001908152602001600020600083815260200190815260200160002054905092915050565b6000601460008473ffffffffffffffffffffffffffffffffffffffff1673ffffffffffffffffffffffffffffffffffffffff168152602001908152602001600020600083815260200190815260200160002054905092915050565b600080611967611962846113a4565b6114b8565b905060006119818261197c610e10601e612739565b612739565b9050600061199b83611996610e106019612739565b612739565b90506119b16119aa83836129d1565b6002612723565b9350505050919050565b60075481565b6119c961277e565b600073ffffffffffffffffffffffffffffffffffffffff168173ffffffffffffffffffffffffffffffffffffffff161415611a39576040517f08c379a0000000000000000000000000000000000000000000000000000000008152600401611a3090613570565b60405180910390fd5b80601160006101000a81548173ffffffffffffffffffffffffffffffffffffffff021916908373ffffffffffffffffffffffffffffffffffffffff16021790555050565b60035481565b600080611a8f83612297565b90506000611a9c826114b8565b90508092505050919050565b600c5481565b60015481565b600a8181548110611ac457600080fd5b906000526020600020016000915090505481565b611ae061277e565b600073ffffffffffffffffffffffffffffffffffffffff168173ffffffffffffffffffffffffffffffffffffffff161415611b50576040517f08c379a0000000000000000000000000000000000000000000000000000000008152600401611b4790613602565b60405180910390fd5b611b598161290d565b50565b600e60009054906101000a900460ff16611bab576040517f08c379a0000000000000000000000000000000000000000000000000000000008152600401611ba29061346f565b60405180910390fd5b600154341015611bf0576040517f08c379a0000000000000000000000000000000000000000000000000000000008152600401611be79061366e565b60405180910390fd5b611bf933610c41565b341115611c3b576040517f08c379a0000000000000000000000000000000000000000000000000000000008152600401611c32906136da565b60405180910390fd5b600073ffffffffffffffffffffffffffffffffffffffff16601360003373ffffffffffffffffffffffffffffffffffffffff1673ffffffffffffffffffffffffffffffffffffffff16815260200190815260200160002060000160009054906101000a900473ffffffffffffffffffffffffffffffffffffffff1673ffffffffffffffffffffffffffffffffffffffff1614611d3757601360003373ffffffffffffffffffffffffffffffffffffffff1673ffffffffffffffffffffffffffffffffffffffff16815260200190815260200160002060000160009054906101000a900473ffffffffffffffffffffffffffffffffffffffff1690505b600073ffffffffffffffffffffffffffffffffffffffff168173ffffffffffffffffffffffffffffffffffffffff161415611d9257601060009054906101000a900473ffffffffffffffffffffffffffffffffffffffff1690505b8073ffffffffffffffffffffffffffffffffffffffff16601360008373ffffffffffffffffffffffffffffffffffffffff1673ffffffffffffffffffffffffffffffffffffffff16815260200190815260200160002060010160009054906101000a900473ffffffffffffffffffffffffffffffffffffffff1673ffffffffffffffffffffffffffffffffffffffff1614611e62576040517f08c379a0000000000000000000000000000000000000000000000000000000008152600401611e5990613746565b60405180910390fd5b60405180604001604052808273ffffffffffffffffffffffffffffffffffffffff1681526020013373ffffffffffffffffffffffffffffffffffffffff16815250601360003373ffffffffffffffffffffffffffffffffffffffff1673ffffffffffffffffffffffffffffffffffffffff16815260200190815260200160002060008201518160000160006101000a81548173ffffffffffffffffffffffffffffffffffffffff021916908373ffffffffffffffffffffffffffffffffffffffff16021790555060208201518160010160006101000a81548173ffffffffffffffffffffffffffffffffffffffff021916908373ffffffffffffffffffffffffffffffffffffffff1602179055509050506000611f7f34836129e7565b9050611f89612ea9565b6000601660003373ffffffffffffffffffffffffffffffffffffffff1673ffffffffffffffffffffffffffffffffffffffff1681526020019081526020016000206001015411156120b757601660003373ffffffffffffffffffffffffffffffffffffffff1673ffffffffffffffffffffffffffffffffffffffff1681526020019081526020016000206040518060e00160405290816000820160009054906101000a900473ffffffffffffffffffffffffffffffffffffffff1673ffffffffffffffffffffffffffffffffffffffff1673ffffffffffffffffffffffffffffffffffffffff16815260200160018201548152602001600282015481526020016003820154815260200160048201548152602001600582015481526020016006820154815250509050612109565b6040518060e001604052803373ffffffffffffffffffffffffffffffffffffffff1681526020016000815260200160008152602001600081526020016000815260200160008152602001600081525090505b6121203482602001516129d190919063ffffffff16565b816020018181525050600061213483610e37565b90508373ffffffffffffffffffffffffffffffffffffffff163373ffffffffffffffffffffffffffffffffffffffff167f02d7e648dd130fc184d383e55bb126ac4c9c60e8f94bf05acdf557ba2d540b4734846040516121959291906134fb565b60405180910390a36121b4818360a001516129d190919063ffffffff16565b8260a001818152505081601660003373ffffffffffffffffffffffffffffffffffffffff1673ffffffffffffffffffffffffffffffffffffffff16815260200190815260200160002060008201518160000160006101000a81548173ffffffffffffffffffffffffffffffffffffffff021916908373ffffffffffffffffffffffffffffffffffffffff1602179055506020820151816001015560408201518160020155606082015181600301556080820151816004015560a0820151816005015560c0820151816006015590505061228b612396565b50505050565b60095481565b600080601660008473ffffffffffffffffffffffffffffffffffffffff1673ffffffffffffffffffffffffffffffffffffffff1681526020019081526020016000206040518060e00160405290816000820160009054906101000a900473ffffffffffffffffffffffffffffffffffffffff1673ffffffffffffffffffffffffffffffffffffffff1673ffffffffffffffffffffffffffffffffffffffff1681526020016001820154815260200160028201548152602001600382015481526020016004820154815260200160058201548152602001600682015481525050905061238e8160a00151612389856115bf565b6129d1565b915050919050565b600e60009054906101000a900460ff166123e5576040517f08c379a00000000000000000000000000000000000000000000000000000000081526004016123dc9061346f565b60405180910390fd5b6000601660003373ffffffffffffffffffffffffffffffffffffffff1673ffffffffffffffffffffffffffffffffffffffff1681526020019081526020016000206040518060e00160405290816000820160009054906101000a900473ffffffffffffffffffffffffffffffffffffffff1673ffffffffffffffffffffffffffffffffffffffff1673ffffffffffffffffffffffffffffffffffffffff1681526020016001820154815260200160028201548152602001600382015481526020016004820154815260200160058201548152602001600682015481525050905060006124d033612297565b905060006124dd336115bf565b905060006124ed83600754612723565b90506124fd8460800151826129d1565b84608001818152505061251b836017546129d190919063ffffffff16565b6017819055503373ffffffffffffffffffffffffffffffffffffffff167fc003f45bc224d116b6d079100d4ab57a5b9633244c47a5a92a176c5b79a85f2884836040516125699291906134fb565b60405180910390a260008460a0018181525050428460c001818152505083601660003373ffffffffffffffffffffffffffffffffffffffff1673ffffffffffffffffffffffffffffffffffffffff16815260200190815260200160002060008201518160000160006101000a81548173ffffffffffffffffffffffffffffffffffffffff021916908373ffffffffffffffffffffffffffffffffffffffff1602179055506020820151816001015560408201518160020155606082015181600301556080820151816004015560a0820151816005015560c0820151816006015590505060008211156126f757601260009054906101000a900473ffffffffffffffffffffffffffffffffffffffff1673ffffffffffffffffffffffffffffffffffffffff1663fa291f6c6126a86003548561272390919063ffffffff16565b6040518263ffffffff1660e01b81526004016126c49190612fa5565b600060405180830381600087803b1580156126de57600080fd5b505af11580156126f2573d6000803e3d6000fd5b505050505b50505050565b601060009054906101000a900473ffffffffffffffffffffffffffffffffffffffff1681565b600081836127319190613795565b905092915050565b6000818361274791906137c6565b905092915050565b6000818361275d919061326b565b905092915050565b60008183106127745781612776565b825b905092915050565b612786612a2a565b73ffffffffffffffffffffffffffffffffffffffff166127a4611800565b73ffffffffffffffffffffffffffffffffffffffff16146127fa576040517f08c379a00000000000000000000000000000000000000000000000000000000081526004016127f19061386c565b60405180910390fd5b565b6000808061280984612a32565b91509150601160009054906101000a900473ffffffffffffffffffffffffffffffffffffffff1673ffffffffffffffffffffffffffffffffffffffff166108fc839081150290604051600060405180830381858888f19350505050158015612875573d6000803e3d6000fd5b50601260009054906101000a900473ffffffffffffffffffffffffffffffffffffffff1673ffffffffffffffffffffffffffffffffffffffff166108fc829081150290604051600060405180830381858888f193505050501580156128de573d6000803e3d6000fd5b50612904816128f684866129d190919063ffffffff16565b6129d190919063ffffffff16565b92505050919050565b60008060009054906101000a900473ffffffffffffffffffffffffffffffffffffffff169050816000806101000a81548173ffffffffffffffffffffffffffffffffffffffff021916908373ffffffffffffffffffffffffffffffffffffffff1602179055508173ffffffffffffffffffffffffffffffffffffffff168173ffffffffffffffffffffffffffffffffffffffff167f8be0079c531659141344cd1fd0a4f28419497f9722a3daafe3b4186f6b6457e060405160405180910390a35050565b600081836129df9190613215565b905092915050565b6000612a046129f5846127fc565b8461274f90919063ffffffff16565b9050612a22612a138484612a56565b8261274f90919063ffffffff16565b905092915050565b600033905090565b600080612a4183600854612e8b565b612a4d84600954612e8b565b91509150915091565b600080829050612a6884600c54612e8b565b91506000600190506000805b80158015612a845750600b548311155b15612dfd57601060009054906101000a900473ffffffffffffffffffffffffffffffffffffffff1673ffffffffffffffffffffffffffffffffffffffff168473ffffffffffffffffffffffffffffffffffffffff161490506000612b1288600a600187612af1919061326b565b81548110612b0257612b0161329f565b5b9060005260206000200154612e8b565b90506001601560008773ffffffffffffffffffffffffffffffffffffffff1673ffffffffffffffffffffffffffffffffffffffff16815260200190815260200160002060008681526020019081526020016000206000828254612b759190613215565b92505081905550612bdf81601460008873ffffffffffffffffffffffffffffffffffffffff1673ffffffffffffffffffffffffffffffffffffffff1681526020019081526020016000206000878152602001908152602001600020546129d190919063ffffffff16565b601460008773ffffffffffffffffffffffffffffffffffffffff1673ffffffffffffffffffffffffffffffffffffffff1681526020019081526020016000206000868152602001908152602001600020819055506001601660008773ffffffffffffffffffffffffffffffffffffffff1673ffffffffffffffffffffffffffffffffffffffff1681526020019081526020016000206003016000828254612c869190613215565b92505081905550612ce281601660008873ffffffffffffffffffffffffffffffffffffffff1673ffffffffffffffffffffffffffffffffffffffff168152602001908152602001600020600201546129d190919063ffffffff16565b601660008773ffffffffffffffffffffffffffffffffffffffff1673ffffffffffffffffffffffffffffffffffffffff16815260200190815260200160002060020181905550612d3b81846129d190919063ffffffff16565b92508473ffffffffffffffffffffffffffffffffffffffff166108fc829081150290604051600060405180830381858888f19350505050158015612d83573d6000803e3d6000fd5b50601360008673ffffffffffffffffffffffffffffffffffffffff1673ffffffffffffffffffffffffffffffffffffffff16815260200190815260200160002060000160009054906101000a900473ffffffffffffffffffffffffffffffffffffffff1694508380612df49061388c565b94505050612a74565b60008286612e0b919061326b565b90506000811115612e8057601260009054906101000a900473ffffffffffffffffffffffffffffffffffffffff1673ffffffffffffffffffffffffffffffffffffffff166108fc829081150290604051600060405180830381858888f19350505050158015612e7e573d6000803e3d6000fd5b505b505050505092915050565b6000612ea1612e9a8484612739565b6064612723565b905092915050565b6040518060e00160405280600073ffffffffffffffffffffffffffffffffffffffff1681526020016000815260200160008152602001600081526020016000815260200160008152602001600081525090565b600080fd5b600073ffffffffffffffffffffffffffffffffffffffff82169050919050565b6000612f2c82612f01565b9050919050565b612f3c81612f21565b8114612f4757600080fd5b50565b600081359050612f5981612f33565b92915050565b600060208284031215612f7557612f74612efc565b5b6000612f8384828501612f4a565b91505092915050565b6000819050919050565b612f9f81612f8c565b82525050565b6000602082019050612fba6000830184612f96565b92915050565b60008115159050919050565b612fd581612fc0565b82525050565b6000602082019050612ff06000830184612fcc565b92915050565b612fff81612f8c565b811461300a57600080fd5b50565b60008135905061301c81612ff6565b92915050565b60006020828403121561303857613037612efc565b5b60006130468482850161300d565b91505092915050565b600061305a82612f01565b9050919050565b61306a8161304f565b82525050565b60006020820190506130856000830184613061565b92915050565b60006040820190506130a06000830185613061565b6130ad6020830184613061565b9392505050565b6130bd81612f21565b82525050565b60006020820190506130d860008301846130b4565b92915050565b600060e0820190506130f3600083018a6130b4565b6131006020830189612f96565b61310d6040830188612f96565b61311a6060830187612f96565b6131276080830186612f96565b61313460a0830185612f96565b61314160c0830184612f96565b98975050505050505050565b6000806040838503121561316457613163612efc565b5b600061317285828601612f4a565b92505060206131838582860161300d565b9150509250929050565b6131968161304f565b81146131a157600080fd5b50565b6000813590506131b38161318d565b92915050565b6000602082840312156131cf576131ce612efc565b5b60006131dd848285016131a4565b91505092915050565b7f4e487b7100000000000000000000000000000000000000000000000000000000600052601160045260246000fd5b600061322082612f8c565b915061322b83612f8c565b9250827fffffffffffffffffffffffffffffffffffffffffffffffffffffffffffffffff038211156132605761325f6131e6565b5b828201905092915050565b600061327682612f8c565b915061328183612f8c565b925082821015613294576132936131e6565b5b828203905092915050565b7f4e487b7100000000000000000000000000000000000000000000000000000000600052603260045260246000fd5b600082825260208201905092915050565b7f4e45454420534f4d452045544800000000000000000000000000000000000000600082015250565b6000613315600d836132ce565b9150613320826132df565b602082019050919050565b6000602082019050818103600083015261334481613308565b9050919050565b7f4d41524b4554204953204e4f5420454d50545900000000000000000000000000600082015250565b60006133816013836132ce565b915061338c8261334b565b602082019050919050565b600060208201905081810360008301526133b081613374565b9050919050565b7f5641554c542041444452455353204e4f54205345540000000000000000000000600082015250565b60006133ed6015836132ce565b91506133f8826133b7565b602082019050919050565b6000602082019050818103600083015261341c816133e0565b9050919050565b7f4e4f5420494e495449414c495a45440000000000000000000000000000000000600082015250565b6000613459600f836132ce565b915061346482613423565b602082019050919050565b600060208201905081810360008301526134888161344c565b9050919050565b7f4e4f5420454e4f5547482042414c414e43450000000000000000000000000000600082015250565b60006134c56012836132ce565b91506134d08261348f565b602082019050919050565b600060208201905081810360008301526134f4816134b8565b9050919050565b60006040820190506135106000830185612f96565b61351d6020830184612f96565b9392505050565b7f5a45524f20414444524553530000000000000000000000000000000000000000600082015250565b600061355a600c836132ce565b915061356582613524565b602082019050919050565b600060208201905081810360008301526135898161354d565b9050919050565b7f4f776e61626c653a206e6577206f776e657220697320746865207a65726f206160008201527f6464726573730000000000000000000000000000000000000000000000000000602082015250565b60006135ec6026836132ce565b91506135f782613590565b604082019050919050565b6000602082019050818103600083015261361b816135df565b9050919050565b7f4445504f534954204d494e494d554d2056414c55450000000000000000000000600082015250565b60006136586015836132ce565b915061366382613622565b602082019050919050565b600060208201905081810360008301526136878161364b565b9050919050565b7f4445504f5349542056414c55452045584345454453204d415800000000000000600082015250565b60006136c46019836132ce565b91506136cf8261368e565b602082019050919050565b600060208201905081810360008301526136f3816136b7565b9050919050565b7f494e5649544552204d5553542045584953540000000000000000000000000000600082015250565b60006137306012836132ce565b915061373b826136fa565b602082019050919050565b6000602082019050818103600083015261375f81613723565b9050919050565b7f4e487b7100000000000000000000000000000000000000000000000000000000600052601260045260246000fd5b60006137a082612f8c565b91506137ab83612f8c565b9250826137bb576137ba613766565b5b828204905092915050565b60006137d182612f8c565b91506137dc83612f8c565b9250817fffffffffffffffffffffffffffffffffffffffffffffffffffffffffffffffff0483118215151615613815576138146131e6565b5b828202905092915050565b7f4f776e61626c653a2063616c6c6572206973206e6f7420746865206f776e6572600082015250565b60006138566020836132ce565b915061386182613820565b602082019050919050565b6000602082019050818103600083015261388581613849565b9050919050565b600061389782612f8c565b91507fffffffffffffffffffffffffffffffffffffffffffffffffffffffffffffffff8214156138ca576138c96131e6565b5b60018201905091905056fea2646970667358221220a99dfa22e9f05f3cf11d4adcaa93a0c0b28b36a928edd3d9544e54db1c2e5d4c64736f6c634300080c0033",
  "linkReferences": {},
  "deployedLinkReferences": {}
}